{
  "contractName": "Ballot",
  "abi": [
    {
      "inputs": [
        {
          "internalType": "string",
          "name": "_question",
          "type": "string"
        },
        {
          "internalType": "string[]",
          "name": "_options",
          "type": "string[]"
        },
        {
          "internalType": "address",
          "name": "_utils",
          "type": "address"
        }
      ],
      "stateMutability": "nonpayable",
      "type": "constructor"
    },
    {
      "inputs": [
        {
          "internalType": "address",
          "name": "_addr",
          "type": "address"
        }
      ],
      "name": "addOwner",
      "outputs": [],
      "stateMutability": "nonpayable",
      "type": "function"
    },
    {
      "inputs": [
        {
          "internalType": "uint256",
          "name": "",
          "type": "uint256"
        }
      ],
      "name": "options",
      "outputs": [
        {
          "internalType": "string",
          "name": "",
          "type": "string"
        }
      ],
      "stateMutability": "view",
      "type": "function"
    },
    {
      "inputs": [
        {
          "internalType": "address",
          "name": "_addr",
          "type": "address"
        }
      ],
      "name": "removeOwner",
      "outputs": [],
      "stateMutability": "nonpayable",
      "type": "function"
    },
    {
      "inputs": [
        {
          "internalType": "uint256",
          "name": "",
          "type": "uint256"
        }
      ],
      "name": "votes",
      "outputs": [
        {
          "internalType": "uint256",
          "name": "",
          "type": "uint256"
        }
      ],
      "stateMutability": "view",
      "type": "function"
    },
    {
      "inputs": [
        {
          "internalType": "uint256",
          "name": "option",
          "type": "uint256"
        }
      ],
      "name": "vote",
      "outputs": [],
      "stateMutability": "nonpayable",
      "type": "function"
    },
    {
      "inputs": [
        {
          "internalType": "uint8",
          "name": "option",
          "type": "uint8"
        }
      ],
      "name": "partyVote",
      "outputs": [],
      "stateMutability": "nonpayable",
      "type": "function"
    },
    {
      "inputs": [
        {
          "internalType": "uint256[]",
          "name": "_periods",
          "type": "uint256[]"
        }
      ],
      "name": "setPeriods",
      "outputs": [],
      "stateMutability": "nonpayable",
      "type": "function"
    },
    {
      "inputs": [
        {
          "internalType": "address[]",
          "name": "parties",
          "type": "address[]"
        }
      ],
      "name": "getPartyVotes",
      "outputs": [
        {
          "internalType": "int8[]",
          "name": "",
          "type": "int8[]"
        }
      ],
      "stateMutability": "view",
      "type": "function"
    },
    {
      "inputs": [],
      "name": "getState",
      "outputs": [
        {
          "internalType": "uint8",
          "name": "",
          "type": "uint8"
        }
      ],
      "stateMutability": "view",
      "type": "function"
    },
    {
      "inputs": [],
      "name": "untilNextState",
      "outputs": [
        {
          "internalType": "uint256",
          "name": "",
          "type": "uint256"
        }
      ],
      "stateMutability": "view",
      "type": "function"
    },
    {
      "inputs": [],
      "name": "getData",
      "outputs": [
        {
          "components": [
            {
              "internalType": "string",
              "name": "question",
              "type": "string"
            },
            {
              "internalType": "string[]",
              "name": "options",
              "type": "string[]"
            },
            {
              "internalType": "uint8",
              "name": "state",
              "type": "uint8"
            },
            {
              "internalType": "uint256",
              "name": "untilNextState",
              "type": "uint256"
            }
          ],
          "internalType": "struct Ballot.BallotData",
          "name": "",
          "type": "tuple"
        }
      ],
      "stateMutability": "view",
      "type": "function"
    }
  ],
  "bytecode": "0x60806040526040518060800160405280600560ff168152602001600660ff168152602001600760ff168152602001600a60ff1681525060059060046200004792919062000252565b503480156200005557600080fd5b506040516200290c3803806200290c83398181016040528101906200007b91906200077e565b60016000803373ffffffffffffffffffffffffffffffffffffffff1673ffffffffffffffffffffffffffffffffffffffff16815260200190815260200160002060006101000a81548160ff0219169083151502179055508260029080519060200190620000ea929190620002a9565b508160039080519060200190620001039291906200033a565b5060038054905067ffffffffffffffff811115620001265762000125620004af565b5b604051908082528060200260200182016040528015620001555781602001602082028036833780820191505090505b50600490805190602001906200016d929190620003a1565b504260018190555080600760006101000a81548173ffffffffffffffffffffffffffffffffffffffff021916908373ffffffffffffffffffffffffffffffffffffffff160217905550600760009054906101000a900473ffffffffffffffffffffffffffffffffffffffff1673ffffffffffffffffffffffffffffffffffffffff1663fcb0ed0d30336040518363ffffffff1660e01b81526004016200021592919062000829565b600060405180830381600087803b1580156200023057600080fd5b505af115801562000245573d6000803e3d6000fd5b50505050505050620008ba565b82805482825590600052602060002090810192821562000296579160200282015b8281111562000295578251829060ff1690559160200191906001019062000273565b5b509050620002a59190620003f3565b5090565b828054620002b79062000885565b90600052602060002090601f016020900481019282620002db576000855562000327565b82601f10620002f657805160ff191683800117855562000327565b8280016001018555821562000327579182015b828111156200032657825182559160200191906001019062000309565b5b509050620003369190620003f3565b5090565b8280548282559060005260206000209081019282156200038e579160200282015b828111156200038d5782518290805190602001906200037c929190620002a9565b50916020019190600101906200035b565b5b5090506200039d919062000412565b5090565b828054828255906000526020600020908101928215620003e0579160200282015b82811115620003df578251825591602001919060010190620003c2565b5b509050620003ef9190620003f3565b5090565b5b808211156200040e576000816000905550600101620003f4565b5090565b5b808211156200043657600081816200042c91906200043a565b5060010162000413565b5090565b508054620004489062000885565b6000825580601f106200045c57506200047d565b601f0160209004906000526020600020908101906200047c9190620003f3565b5b50565b6000604051905090565b600080fd5b600080fd5b600080fd5b600080fd5b6000601f19601f8301169050919050565b7f4e487b7100000000000000000000000000000000000000000000000000000000600052604160045260246000fd5b620004e9826200049e565b810181811067ffffffffffffffff821117156200050b576200050a620004af565b5b80604052505050565b60006200052062000480565b90506200052e8282620004de565b919050565b600067ffffffffffffffff821115620005515762000550620004af565b5b6200055c826200049e565b9050602081019050919050565b60005b83811015620005895780820151818401526020810190506200056c565b8381111562000599576000848401525b50505050565b6000620005b6620005b08462000533565b62000514565b905082815260208101848484011115620005d557620005d462000499565b5b620005e284828562000569565b509392505050565b600082601f83011262000602576200060162000494565b5b8151620006148482602086016200059f565b91505092915050565b600067ffffffffffffffff8211156200063b576200063a620004af565b5b602082029050602081019050919050565b600080fd5b60006200066862000662846200061d565b62000514565b905080838252602082019050602084028301858111156200068e576200068d6200064c565b5b835b81811015620006dc57805167ffffffffffffffff811115620006b757620006b662000494565b5b808601620006c68982620005ea565b8552602085019450505060208101905062000690565b5050509392505050565b600082601f830112620006fe57620006fd62000494565b5b81516200071084826020860162000651565b91505092915050565b600073ffffffffffffffffffffffffffffffffffffffff82169050919050565b6000620007468262000719565b9050919050565b620007588162000739565b81146200076457600080fd5b50565b60008151905062000778816200074d565b92915050565b6000806000606084860312156200079a57620007996200048a565b5b600084015167ffffffffffffffff811115620007bb57620007ba6200048f565b5b620007c986828701620005ea565b935050602084015167ffffffffffffffff811115620007ed57620007ec6200048f565b5b620007fb86828701620006e6565b92505060406200080e8682870162000767565b9150509250925092565b620008238162000739565b82525050565b600060408201905062000840600083018562000818565b6200084f602083018462000818565b9392505050565b7f4e487b7100000000000000000000000000000000000000000000000000000000600052602260045260246000fd5b600060028204905060018216806200089e57607f821691505b602082108103620008b457620008b362000856565b5b50919050565b61204280620008ca6000396000f3fe608060405234801561001057600080fd5b50600436106100a95760003560e01c8063409e220511610071578063409e22051461013e5780635df813301461016e5780637065cb481461019e578063d653b09c146101ba578063d850552f146101d6578063d8879a34146101f4576100a9565b80630121b93f146100ae578063173825d9146100ca5780631865c57d146100e657806320553b32146101045780633bc5de3014610120575b600080fd5b6100c860048036038101906100c391906112a2565b610224565b005b6100e460048036038101906100df919061132d565b6106ee565b005b6100ee61079d565b6040516100fb9190611376565b60405180910390f35b61011e600480360381019061011991906114ea565b61081c565b005b6101286108cf565b6040516101359190611705565b60405180910390f35b610158600480360381019061015391906112a2565b610a69565b6040516101659190611771565b60405180910390f35b610188600480360381019061018391906112a2565b610b15565b60405161019591906117a2565b60405180910390f35b6101b860048036038101906101b3919061132d565b610b39565b005b6101d460048036038101906101cf91906117e9565b610be8565b005b6101de610f7f565b6040516101eb91906117a2565b60405180910390f35b61020e600480360381019061020991906118d9565b610fd8565b60405161021b91906119ed565b60405180910390f35b600260038160ff16111580156102735750603c60058260ff168154811061024e5761024d611a0f565b5b90600052602060002001546102639190611a6d565b6001546102709190611ac7565b42105b61027c57600080fd5b60038054905082106102c3576040517f08c379a00000000000000000000000000000000000000000000000000000000081526004016102ba90611b69565b60405180910390fd5b600760009054906101000a900473ffffffffffffffffffffffffffffffffffffffff1673ffffffffffffffffffffffffffffffffffffffff1663c3c5a547336040518263ffffffff1660e01b815260040161031e9190611b98565b602060405180830381865afa15801561033b573d6000803e3d6000fd5b505050506040513d601f19601f8201168201806040525081019061035f9190611beb565b61039e576040517f08c379a000000000000000000000000000000000000000000000000000000000815260040161039590611c64565b60405180910390fd5b6000600660003373ffffffffffffffffffffffffffffffffffffffff1673ffffffffffffffffffffffffffffffffffffffff16815260200190815260200160002060009054906101000a900460ff1660ff1614610430576040517f08c379a000000000000000000000000000000000000000000000000000000000815260040161042790611cd0565b60405180910390fd5b6000600760009054906101000a900473ffffffffffffffffffffffffffffffffffffffff1673ffffffffffffffffffffffffffffffffffffffff1663586ad9fe336040518263ffffffff1660e01b815260040161048d9190611b98565b602060405180830381865afa1580156104aa573d6000803e3d6000fd5b505050506040513d601f19601f820116820180604052508101906104ce9190611d05565b9050603c60056000815481106104e7576104e6611a0f565b5b90600052602060002001546104fc9190611a6d565b6001546105099190611ac7565b811061054a576040517f08c379a000000000000000000000000000000000000000000000000000000000815260040161054190611da4565b60405180910390fd5b6000600760009054906101000a900473ffffffffffffffffffffffffffffffffffffffff1673ffffffffffffffffffffffffffffffffffffffff1663e132b73a336040518263ffffffff1660e01b81526004016105a79190611b98565b602060405180830381865afa1580156105c4573d6000803e3d6000fd5b505050506040513d601f19601f820116820180604052508101906105e89190611dd9565b9050600073ffffffffffffffffffffffffffffffffffffffff168173ffffffffffffffffffffffffffffffffffffffff161461065b57600461062982611167565b8154811061063a57610639611a0f565b5b90600052602060002001600081548092919061065590611e06565b91905055505b6001600660003373ffffffffffffffffffffffffffffffffffffffff1673ffffffffffffffffffffffffffffffffffffffff16815260200190815260200160002060006101000a81548160ff021916908360ff160217905550600484815481106106c8576106c7611a0f565b5b9060005260206000200160008154809291906106e390611e2f565b919050555050505050565b6000803373ffffffffffffffffffffffffffffffffffffffff1673ffffffffffffffffffffffffffffffffffffffff16815260200190815260200160002060009054906101000a900460ff1661074357600080fd5b60016000808373ffffffffffffffffffffffffffffffffffffffff1673ffffffffffffffffffffffffffffffffffffffff16815260200190815260200160002060006101000a81548160ff02191690831515021790555050565b600080600090505b6005805490508160ff16101561081357603c60058260ff16815481106107ce576107cd611a0f565b5b90600052602060002001546107e39190611a6d565b6001546107f09190611ac7565b4210156108005780915050610819565b808061080b90611e77565b9150506107a5565b50600390505b90565b6000803373ffffffffffffffffffffffffffffffffffffffff1673ffffffffffffffffffffffffffffffffffffffff16815260200190815260200160002060009054906101000a900460ff1661087157600080fd5b60048151146108b5576040517f08c379a00000000000000000000000000000000000000000000000000000000081526004016108ac90611eec565b60405180910390fd5b80600590805190602001906108cb9291906111c3565b5050565b6108d7611210565b6040518060800160405280600280546108ef90611f3b565b80601f016020809104026020016040519081016040528092919081815260200182805461091b90611f3b565b80156109685780601f1061093d57610100808354040283529160200191610968565b820191906000526020600020905b81548152906001019060200180831161094b57829003601f168201915b505050505081526020016003805480602002602001604051908101604052809291908181526020016000905b82821015610a405783829060005260206000200180546109b390611f3b565b80601f01602080910402602001604051908101604052809291908181526020018280546109df90611f3b565b8015610a2c5780601f10610a0157610100808354040283529160200191610a2c565b820191906000526020600020905b815481529060010190602001808311610a0f57829003601f168201915b505050505081526020019060010190610994565b505050508152602001610a5161079d565b60ff168152602001610a61610f7f565b815250905090565b60038181548110610a7957600080fd5b906000526020600020016000915090508054610a9490611f3b565b80601f0160208091040260200160405190810160405280929190818152602001828054610ac090611f3b565b8015610b0d5780601f10610ae257610100808354040283529160200191610b0d565b820191906000526020600020905b815481529060010190602001808311610af057829003601f168201915b505050505081565b60048181548110610b2557600080fd5b906000526020600020016000915090505481565b6000803373ffffffffffffffffffffffffffffffffffffffff1673ffffffffffffffffffffffffffffffffffffffff16815260200190815260200160002060009054906101000a900460ff16610b8e57600080fd5b60016000808373ffffffffffffffffffffffffffffffffffffffff1673ffffffffffffffffffffffffffffffffffffffff16815260200190815260200160002060006101000a81548160ff02191690831515021790555050565b600160038160ff1611158015610c375750603c60058260ff1681548110610c1257610c11611a0f565b5b9060005260206000200154610c279190611a6d565b600154610c349190611ac7565b42105b610c4057600080fd5b600760009054906101000a900473ffffffffffffffffffffffffffffffffffffffff1673ffffffffffffffffffffffffffffffffffffffff1663f8b2e512336040518263ffffffff1660e01b8152600401610c9b9190611b98565b602060405180830381865afa158015610cb8573d6000803e3d6000fd5b505050506040513d601f19601f82011682018060405250810190610cdc9190611beb565b610d1b576040517f08c379a0000000000000000000000000000000000000000000000000000000008152600401610d1290611fb8565b60405180910390fd5b6003805490508260ff1610610d65576040517f08c379a0000000000000000000000000000000000000000000000000000000008152600401610d5c90611b69565b60405180910390fd5b6000600660003373ffffffffffffffffffffffffffffffffffffffff1673ffffffffffffffffffffffffffffffffffffffff16815260200190815260200160002060009054906101000a900460ff1660ff1614610df7576040517f08c379a0000000000000000000000000000000000000000000000000000000008152600401610dee90611cd0565b60405180910390fd5b60405180604001604052804281526020018360ff16815250600860003373ffffffffffffffffffffffffffffffffffffffff1673ffffffffffffffffffffffffffffffffffffffff1681526020019081526020016000206000820151816000015560208201518160010160006101000a81548160ff021916908360ff1602179055509050506001600660003373ffffffffffffffffffffffffffffffffffffffff1673ffffffffffffffffffffffffffffffffffffffff16815260200190815260200160002060006101000a81548160ff021916908360ff1602179055503373ffffffffffffffffffffffffffffffffffffffff1663a30e3fa96040518163ffffffff1660e01b8152600401602060405180830381865afa158015610f20573d6000803e3d6000fd5b505050506040513d601f19601f82011682018060405250810190610f449190611d05565b60048360ff1681548110610f5b57610f5a611a0f565b5b906000526020600020016000828254610f749190611ac7565b925050819055505050565b600080610f8a61079d565b60ff16905042603c60058381548110610fa657610fa5611a0f565b5b9060005260206000200154610fbb9190611a6d565b600154610fc89190611ac7565b610fd29190611fd8565b91505090565b60606000825167ffffffffffffffff811115610ff757610ff66113a7565b5b6040519080825280602002602001820160405280156110255781602001602082028036833780820191505090505b50905060005b835181101561115d5760006008600086848151811061104d5761104c611a0f565b5b602002602001015173ffffffffffffffffffffffffffffffffffffffff1673ffffffffffffffffffffffffffffffffffffffff168152602001908152602001600020604051806040016040529081600082015481526020016001820160009054906101000a900460ff1660ff1660ff16815250509050600081600001510361111c577fffffffffffffffffffffffffffffffffffffffffffffffffffffffffffffffff83838151811061110357611102611a0f565b5b602002602001019060000b908160000b81525050611149565b806020015183838151811061113457611133611a0f565b5b602002602001019060000b908160000b815250505b50808061115590611e2f565b91505061102b565b5080915050919050565b6000600860008373ffffffffffffffffffffffffffffffffffffffff1673ffffffffffffffffffffffffffffffffffffffff16815260200190815260200160002060010160009054906101000a900460ff1660ff169050919050565b8280548282559060005260206000209081019282156111ff579160200282015b828111156111fe5782518255916020019190600101906111e3565b5b50905061120c919061123b565b5090565b60405180608001604052806060815260200160608152602001600060ff168152602001600081525090565b5b8082111561125457600081600090555060010161123c565b5090565b6000604051905090565b600080fd5b600080fd5b6000819050919050565b61127f8161126c565b811461128a57600080fd5b50565b60008135905061129c81611276565b92915050565b6000602082840312156112b8576112b7611262565b5b60006112c68482850161128d565b91505092915050565b600073ffffffffffffffffffffffffffffffffffffffff82169050919050565b60006112fa826112cf565b9050919050565b61130a816112ef565b811461131557600080fd5b50565b60008135905061132781611301565b92915050565b60006020828403121561134357611342611262565b5b600061135184828501611318565b91505092915050565b600060ff82169050919050565b6113708161135a565b82525050565b600060208201905061138b6000830184611367565b92915050565b600080fd5b6000601f19601f8301169050919050565b7f4e487b7100000000000000000000000000000000000000000000000000000000600052604160045260246000fd5b6113df82611396565b810181811067ffffffffffffffff821117156113fe576113fd6113a7565b5b80604052505050565b6000611411611258565b905061141d82826113d6565b919050565b600067ffffffffffffffff82111561143d5761143c6113a7565b5b602082029050602081019050919050565b600080fd5b600061146661146184611422565b611407565b905080838252602082019050602084028301858111156114895761148861144e565b5b835b818110156114b2578061149e888261128d565b84526020840193505060208101905061148b565b5050509392505050565b600082601f8301126114d1576114d0611391565b5b81356114e1848260208601611453565b91505092915050565b600060208284031215611500576114ff611262565b5b600082013567ffffffffffffffff81111561151e5761151d611267565b5b61152a848285016114bc565b91505092915050565b600081519050919050565b600082825260208201905092915050565b60005b8381101561156d578082015181840152602081019050611552565b8381111561157c576000848401525b50505050565b600061158d82611533565b611597818561153e565b93506115a781856020860161154f565b6115b081611396565b840191505092915050565b600081519050919050565b600082825260208201905092915050565b6000819050602082019050919050565b60006115f38383611582565b905092915050565b6000602082019050919050565b6000611613826115bb565b61161d81856115c6565b93508360208202850161162f856115d7565b8060005b8581101561166b578484038952815161164c85826115e7565b9450611657836115fb565b925060208a01995050600181019050611633565b50829750879550505050505092915050565b6116868161135a565b82525050565b6116958161126c565b82525050565b600060808301600083015184820360008601526116b88282611582565b915050602083015184820360208601526116d28282611608565b91505060408301516116e7604086018261167d565b5060608301516116fa606086018261168c565b508091505092915050565b6000602082019050818103600083015261171f818461169b565b905092915050565b600082825260208201905092915050565b600061174382611533565b61174d8185611727565b935061175d81856020860161154f565b61176681611396565b840191505092915050565b6000602082019050818103600083015261178b8184611738565b905092915050565b61179c8161126c565b82525050565b60006020820190506117b76000830184611793565b92915050565b6117c68161135a565b81146117d157600080fd5b50565b6000813590506117e3816117bd565b92915050565b6000602082840312156117ff576117fe611262565b5b600061180d848285016117d4565b91505092915050565b600067ffffffffffffffff821115611831576118306113a7565b5b602082029050602081019050919050565b600061185561185084611816565b611407565b905080838252602082019050602084028301858111156118785761187761144e565b5b835b818110156118a1578061188d8882611318565b84526020840193505060208101905061187a565b5050509392505050565b600082601f8301126118c0576118bf611391565b5b81356118d0848260208601611842565b91505092915050565b6000602082840312156118ef576118ee611262565b5b600082013567ffffffffffffffff81111561190d5761190c611267565b5b611919848285016118ab565b91505092915050565b600081519050919050565b600082825260208201905092915050565b6000819050602082019050919050565b60008160000b9050919050565b6119648161194e565b82525050565b6000611976838361195b565b60208301905092915050565b6000602082019050919050565b600061199a82611922565b6119a4818561192d565b93506119af8361193e565b8060005b838110156119e05781516119c7888261196a565b97506119d283611982565b9250506001810190506119b3565b5085935050505092915050565b60006020820190508181036000830152611a07818461198f565b905092915050565b7f4e487b7100000000000000000000000000000000000000000000000000000000600052603260045260246000fd5b7f4e487b7100000000000000000000000000000000000000000000000000000000600052601160045260246000fd5b6000611a788261126c565b9150611a838361126c565b9250817fffffffffffffffffffffffffffffffffffffffffffffffffffffffffffffffff0483118215151615611abc57611abb611a3e565b5b828202905092915050565b6000611ad28261126c565b9150611add8361126c565b9250827fffffffffffffffffffffffffffffffffffffffffffffffffffffffffffffffff03821115611b1257611b11611a3e565b5b828201905092915050565b7f4f7074696f6e206f7574206f662072616e676500000000000000000000000000600082015250565b6000611b53601383611727565b9150611b5e82611b1d565b602082019050919050565b60006020820190508181036000830152611b8281611b46565b9050919050565b611b92816112ef565b82525050565b6000602082019050611bad6000830184611b89565b92915050565b60008115159050919050565b611bc881611bb3565b8114611bd357600080fd5b50565b600081519050611be581611bbf565b92915050565b600060208284031215611c0157611c00611262565b5b6000611c0f84828501611bd6565b91505092915050565b7f596f7520617265206e6f74207265676973746572656400000000000000000000600082015250565b6000611c4e601683611727565b9150611c5982611c18565b602082019050919050565b60006020820190508181036000830152611c7d81611c41565b9050919050565b7f596f75206861766520616c726561647920766f74656400000000000000000000600082015250565b6000611cba601683611727565b9150611cc582611c84565b602082019050919050565b60006020820190508181036000830152611ce981611cad565b9050919050565b600081519050611cff81611276565b92915050565b600060208284031215611d1b57611d1a611262565b5b6000611d2984828501611cf0565b91505092915050565b7f596f75206368616e67656420796f757220706172747920617420766f74696e6760008201527f2074696d65000000000000000000000000000000000000000000000000000000602082015250565b6000611d8e602583611727565b9150611d9982611d32565b604082019050919050565b60006020820190508181036000830152611dbd81611d81565b9050919050565b600081519050611dd381611301565b92915050565b600060208284031215611def57611dee611262565b5b6000611dfd84828501611dc4565b91505092915050565b6000611e118261126c565b915060008203611e2457611e23611a3e565b5b600182039050919050565b6000611e3a8261126c565b91507fffffffffffffffffffffffffffffffffffffffffffffffffffffffffffffffff8203611e6c57611e6b611a3e565b5b600182019050919050565b6000611e828261135a565b915060ff8203611e9557611e94611a3e565b5b600182019050919050565b7f496e76616c6964206e756d626572206f6620706572696f647300000000000000600082015250565b6000611ed6601983611727565b9150611ee182611ea0565b602082019050919050565b60006020820190508181036000830152611f0581611ec9565b9050919050565b7f4e487b7100000000000000000000000000000000000000000000000000000000600052602260045260246000fd5b60006002820490506001821680611f5357607f821691505b602082108103611f6657611f65611f0c565b5b50919050565b7f496e76616c696420706172747900000000000000000000000000000000000000600082015250565b6000611fa2600d83611727565b9150611fad82611f6c565b602082019050919050565b60006020820190508181036000830152611fd181611f95565b9050919050565b6000611fe38261126c565b9150611fee8361126c565b92508282101561200157612000611a3e565b5b82820390509291505056fea2646970667358221220f0e9a8c79c0c2e94c287ded3c62acc8fd7b65fd5151da710c91dbbd8da0cf10c64736f6c634300080e0033",
  "immutableReferences": {},
  "source": "// SPDX-License-Identifier: UNLICENSED\r\npragma solidity >=0.8.14;\r\n\r\nimport \"./Utils.sol\";\r\nimport \"./Party.sol\";\r\nimport \"./Owned.sol\";\r\n\r\n//import \"./Storage.sol\";\r\n\r\ncontract Ballot is Owned {\r\n    //Attributes\r\n    uint256 creationTimestamp;\r\n    string question;\r\n    string[] public options;\r\n    uint256[] public votes;\r\n    uint256[] periods = [5, 6, 7, 10];\r\n\r\n    mapping(address => uint8) hasVoted;\r\n\r\n    Utils utils;\r\n\r\n    //Ballot show\r\n    struct BallotData {\r\n        string question;\r\n        string[] options;\r\n        uint8 state;\r\n        uint256 untilNextState;\r\n    }\r\n\r\n    struct PartyVote {\r\n        uint256 timestamp;\r\n        uint8 option;\r\n    }\r\n\r\n    mapping(address => PartyVote) votedParties;\r\n\r\n    //----------------------STATE LOGIC-----------------------\r\n\r\n    /*\r\n        States:\r\n        0 - Ballot present\r\n        1 - Party voting\r\n        2 - General voting\r\n        3 - Closed\r\n    */\r\n\r\n    modifier inState(uint8 _state) {\r\n        require(\r\n            _state <= 3 &&\r\n                block.timestamp <\r\n                creationTimestamp + (periods[_state] * 1 minutes)\r\n        );\r\n        _;\r\n    }\r\n\r\n    //------------------------MODIFIER------------------------\r\n\r\n    //Modifier check if sender is contract Party\r\n    modifier isParty() {\r\n        require(utils.checkIsParty(msg.sender), \"Invalid party\");\r\n        _;\r\n    }\r\n\r\n    //----------------------CONSTRUCTOR-----------------------\r\n\r\n    constructor(\r\n        string memory _question,\r\n        string[] memory _options,\r\n        address _utils\r\n    ) {\r\n        question = _question;\r\n        options = _options;\r\n        votes = new uint256[](options.length);\r\n        creationTimestamp = block.timestamp;\r\n        utils = Utils(_utils);\r\n        utils.addBallotToMapping(address(this), msg.sender);\r\n    }\r\n\r\n    //-------------------SECURE FUNCTIONS---------------------\r\n\r\n    function vote(uint256 option) public inState(2) {\r\n        require(option < options.length, \"Option out of range\");\r\n        require(utils.isRegistered(msg.sender), \"You are not registered\");\r\n        require(hasVoted[msg.sender] == 0, \"You have already voted\");\r\n\r\n        uint256 partyUpdate = utils.getLastPartyUpdate(msg.sender);\r\n        require(\r\n            partyUpdate < creationTimestamp + (periods[0] * 1 minutes),\r\n            \"You changed your party at voting time\"\r\n        );\r\n\r\n        address party = utils.checkParty(msg.sender);\r\n\r\n        if (party != address(0)) {\r\n            votes[getPartyVote(party)]--;\r\n        }\r\n\r\n        hasVoted[msg.sender] = 1;\r\n        votes[option]++;\r\n    }\r\n\r\n    function partyVote(uint8 option) public inState(1) isParty {\r\n        require(option < options.length, \"Option out of range\");\r\n        require(hasVoted[msg.sender] == 0, \"You have already voted\");\r\n\r\n        votedParties[msg.sender] = PartyVote(block.timestamp, option);\r\n        hasVoted[msg.sender] = 1;\r\n        votes[option] += Party(msg.sender).numberOfMembers();\r\n    }\r\n\r\n    //---------------------PRIVATE FUNCTIONS---------------------\r\n\r\n    function getPartyVote(address party) internal view returns (uint256) {\r\n        return votedParties[party].option;\r\n    }\r\n\r\n    //----------------------PUBLIC FUNCTIONS---------------------\r\n\r\n    function setPeriods(uint256[] memory _periods) public onlyOwner {\r\n        require(_periods.length == 4, \"Invalid number of periods\");\r\n        periods = _periods;\r\n    }\r\n\r\n    function getPartyVotes(address[] memory parties)\r\n        public\r\n        view\r\n        returns (int8[] memory)\r\n    {\r\n        int8[] memory result = new int8[](parties.length);\r\n        for (uint256 i = 0; i < parties.length; i++) {\r\n            PartyVote memory pv = votedParties[parties[i]];\r\n            if (pv.timestamp == 0) {\r\n                result[i] = -1;\r\n            } else {\r\n                result[i] = int8(pv.option);\r\n            }\r\n        }\r\n        return result;\r\n    }\r\n\r\n    function getState() public view returns (uint8) {\r\n        for (uint8 i = 0; i < periods.length; i++) {\r\n            if (\r\n                block.timestamp < creationTimestamp + (periods[i] * 1 minutes)\r\n            ) {\r\n                return i;\r\n            }\r\n        }\r\n        return 3;\r\n    }\r\n\r\n    function untilNextState() public view returns (uint256) {\r\n        uint256 state = getState();\r\n        return\r\n            creationTimestamp + (periods[state] * 1 minutes) - block.timestamp;\r\n    }\r\n\r\n    function getData() public view returns (BallotData memory) {\r\n        return BallotData(question, options, getState(), untilNextState());\r\n    }\r\n}\r\n",
  "sourcePath": "C:\\Users\\eduge\\TFG\\voting-contracts-v2\\contracts\\Ballot.sol",
  "compiler": {
    "name": "solc",
    "version": "0.8.14+commit.80d49f37.Emscripten.clang"
  },
  "schemaVersion": "3.4.9",
  "updatedAt": "2022-09-01T10:57:39.432Z",
  "devdoc": {
    "kind": "dev",
    "methods": {},
    "version": 1
  },
  "userdoc": {
    "kind": "user",
    "methods": {},
    "version": 1
  }
}