{
  "contractName": "Party",
  "abi": [
    {
      "inputs": [
        {
          "internalType": "address",
          "name": "_utils",
          "type": "address"
        },
        {
          "internalType": "string",
          "name": "_name",
          "type": "string"
        },
        {
          "internalType": "string",
          "name": "_description",
          "type": "string"
        }
      ],
      "stateMutability": "nonpayable",
      "type": "constructor"
    },
    {
      "inputs": [],
      "name": "description",
      "outputs": [
        {
          "internalType": "string",
          "name": "",
          "type": "string"
        }
      ],
      "stateMutability": "view",
      "type": "function"
    },
    {
      "inputs": [],
      "name": "electoralProgram",
      "outputs": [
        {
          "internalType": "string",
          "name": "",
          "type": "string"
        }
      ],
      "stateMutability": "view",
      "type": "function"
    },
    {
      "inputs": [],
      "name": "email",
      "outputs": [
        {
          "internalType": "string",
          "name": "",
          "type": "string"
        }
      ],
      "stateMutability": "view",
      "type": "function"
    },
    {
      "inputs": [],
      "name": "image",
      "outputs": [
        {
          "internalType": "string",
          "name": "",
          "type": "string"
        }
      ],
      "stateMutability": "view",
      "type": "function"
    },
    {
      "inputs": [],
      "name": "name",
      "outputs": [
        {
          "internalType": "string",
          "name": "",
          "type": "string"
        }
      ],
      "stateMutability": "view",
      "type": "function"
    },
    {
      "inputs": [],
      "name": "numberOfMembers",
      "outputs": [
        {
          "internalType": "uint256",
          "name": "",
          "type": "uint256"
        }
      ],
      "stateMutability": "view",
      "type": "function"
    },
    {
      "inputs": [],
      "name": "website",
      "outputs": [
        {
          "internalType": "string",
          "name": "",
          "type": "string"
        }
      ],
      "stateMutability": "view",
      "type": "function"
    },
    {
      "inputs": [
        {
          "internalType": "address",
          "name": "_addr",
          "type": "address"
        }
      ],
      "name": "addOwner",
      "outputs": [],
      "stateMutability": "nonpayable",
      "type": "function"
    },
    {
      "inputs": [
        {
          "internalType": "address",
          "name": "_addr",
          "type": "address"
        }
      ],
      "name": "removeOwner",
      "outputs": [],
      "stateMutability": "nonpayable",
      "type": "function"
    },
    {
      "inputs": [
        {
          "internalType": "address",
          "name": "ballot",
          "type": "address"
        },
        {
          "internalType": "uint8",
          "name": "option",
          "type": "uint8"
        }
      ],
      "name": "partyVote",
      "outputs": [],
      "stateMutability": "nonpayable",
      "type": "function"
    },
    {
      "inputs": [
        {
          "internalType": "string[]",
          "name": "_fields",
          "type": "string[]"
        },
        {
          "internalType": "uint8[]",
          "name": "ids",
          "type": "uint8[]"
        }
      ],
      "name": "set",
      "outputs": [],
      "stateMutability": "nonpayable",
      "type": "function"
    },
    {
      "inputs": [],
      "name": "increaseMembers",
      "outputs": [],
      "stateMutability": "nonpayable",
      "type": "function"
    },
    {
      "inputs": [],
      "name": "decreaseMembers",
      "outputs": [],
      "stateMutability": "nonpayable",
      "type": "function"
    }
  ],
  "bytecode": "0x60806040523480156200001157600080fd5b5060405162001b3238038062001b3283398181016040528101906200003791906200044f565b60016000803373ffffffffffffffffffffffffffffffffffffffff1673ffffffffffffffffffffffffffffffffffffffff16815260200190815260200160002060006101000a81548160ff0219169083151502179055508160019080519060200190620000a69291906200019d565b508060029080519060200190620000bf9291906200019d565b5082600860006101000a81548173ffffffffffffffffffffffffffffffffffffffff021916908373ffffffffffffffffffffffffffffffffffffffff160217905550600860009054906101000a900473ffffffffffffffffffffffffffffffffffffffff1673ffffffffffffffffffffffffffffffffffffffff1663ebd9955030336040518363ffffffff1660e01b815260040162000160929190620004fa565b600060405180830381600087803b1580156200017b57600080fd5b505af115801562000190573d6000803e3d6000fd5b505050505050506200058b565b828054620001ab9062000556565b90600052602060002090601f016020900481019282620001cf57600085556200021b565b82601f10620001ea57805160ff19168380011785556200021b565b828001600101855582156200021b579182015b828111156200021a578251825591602001919060010190620001fd565b5b5090506200022a91906200022e565b5090565b5b80821115620002495760008160009055506001016200022f565b5090565b6000604051905090565b600080fd5b600080fd5b600073ffffffffffffffffffffffffffffffffffffffff82169050919050565b60006200028e8262000261565b9050919050565b620002a08162000281565b8114620002ac57600080fd5b50565b600081519050620002c08162000295565b92915050565b600080fd5b600080fd5b6000601f19601f8301169050919050565b7f4e487b7100000000000000000000000000000000000000000000000000000000600052604160045260246000fd5b6200031b82620002d0565b810181811067ffffffffffffffff821117156200033d576200033c620002e1565b5b80604052505050565b6000620003526200024d565b905062000360828262000310565b919050565b600067ffffffffffffffff821115620003835762000382620002e1565b5b6200038e82620002d0565b9050602081019050919050565b60005b83811015620003bb5780820151818401526020810190506200039e565b83811115620003cb576000848401525b50505050565b6000620003e8620003e28462000365565b62000346565b905082815260208101848484011115620004075762000406620002cb565b5b620004148482856200039b565b509392505050565b600082601f830112620004345762000433620002c6565b5b815162000446848260208601620003d1565b91505092915050565b6000806000606084860312156200046b576200046a62000257565b5b60006200047b86828701620002af565b935050602084015167ffffffffffffffff8111156200049f576200049e6200025c565b5b620004ad868287016200041c565b925050604084015167ffffffffffffffff811115620004d157620004d06200025c565b5b620004df868287016200041c565b9150509250925092565b620004f48162000281565b82525050565b6000604082019050620005116000830185620004e9565b620005206020830184620004e9565b9392505050565b7f4e487b7100000000000000000000000000000000000000000000000000000000600052602260045260246000fd5b600060028204905060018216806200056f57607f821691505b60208210810362000585576200058462000527565b5b50919050565b611597806200059b6000396000f3fe608060405234801561001057600080fd5b50600436106100cf5760003560e01c8063820e93f51161008c578063d4a3096e11610066578063d4a3096e146101c8578063d95208b1146101e4578063f3ccaac014610202578063f7b85eb314610220576100cf565b8063820e93f51461016e578063a30e3fa91461018c578063beb0a416146101aa576100cf565b806306fdde03146100d4578063173825d9146100f25780635b1384971461010e5780636e9d00f2146101185780637065cb48146101345780637284e41614610150575b600080fd5b6100dc61022a565b6040516100e99190610ef1565b60405180910390f35b61010c60048036038101906101079190610f85565b6102b8565b005b6101166103a6565b005b610132600480360381019061012d91906112c9565b61041a565b005b61014e60048036038101906101499190610f85565b6106dd565b005b6101586107cb565b6040516101659190610ef1565b60405180910390f35b610176610859565b6040516101839190610ef1565b60405180910390f35b6101946108e7565b6040516101a1919061135a565b60405180910390f35b6101b26108ed565b6040516101bf9190610ef1565b60405180910390f35b6101e260048036038101906101dd9190611375565b61097b565b005b6101ec610ac7565b6040516101f99190610ef1565b60405180910390f35b61020a610b55565b6040516102179190610ef1565b60405180910390f35b610228610be3565b005b60018054610237906113e4565b80601f0160208091040260200160405190810160405280929190818152602001828054610263906113e4565b80156102b05780601f10610285576101008083540402835291602001916102b0565b820191906000526020600020905b81548152906001019060200180831161029357829003601f168201915b505050505081565b6000803373ffffffffffffffffffffffffffffffffffffffff1673ffffffffffffffffffffffffffffffffffffffff16815260200190815260200160002060009054906101000a900460ff1661030d57600080fd5b61031681610c57565b600860009054906101000a900473ffffffffffffffffffffffffffffffffffffffff1673ffffffffffffffffffffffffffffffffffffffff16635c253c8f826040518263ffffffff1660e01b81526004016103719190611424565b600060405180830381600087803b15801561038b57600080fd5b505af115801561039f573d6000803e3d6000fd5b5050505050565b3373ffffffffffffffffffffffffffffffffffffffff16600860009054906101000a900473ffffffffffffffffffffffffffffffffffffffff1673ffffffffffffffffffffffffffffffffffffffff161461040057600080fd5b600760008154809291906104139061146e565b9190505550565b6000803373ffffffffffffffffffffffffffffffffffffffff1673ffffffffffffffffffffffffffffffffffffffff16815260200190815260200160002060009054906101000a900460ff1661046f57600080fd5b60005b82518160ff1610156106d8576000828260ff168151811061049657610495611497565b5b602002602001015160ff16036104df57828160ff16815181106104bc576104bb611497565b5b6020026020010151600190805190602001906104d9929190610db5565b506106c5565b6001828260ff16815181106104f7576104f6611497565b5b602002602001015160ff160361054057828160ff168151811061051d5761051c611497565b5b60200260200101516002908051906020019061053a929190610db5565b506106c4565b6002828260ff168151811061055857610557611497565b5b602002602001015160ff16036105a157828160ff168151811061057e5761057d611497565b5b60200260200101516003908051906020019061059b929190610db5565b506106c3565b6003828260ff16815181106105b9576105b8611497565b5b602002602001015160ff160361060257828160ff16815181106105df576105de611497565b5b6020026020010151600490805190602001906105fc929190610db5565b506106c2565b6004828260ff168151811061061a57610619611497565b5b602002602001015160ff160361066357828160ff16815181106106405761063f611497565b5b60200260200101516005908051906020019061065d929190610db5565b506106c1565b6005828260ff168151811061067b5761067a611497565b5b602002602001015160ff16036106c057828160ff16815181106106a1576106a0611497565b5b6020026020010151600690805190602001906106be929190610db5565b505b5b5b5b5b5b80806106d0906114c6565b915050610472565b505050565b6000803373ffffffffffffffffffffffffffffffffffffffff1673ffffffffffffffffffffffffffffffffffffffff16815260200190815260200160002060009054906101000a900460ff1661073257600080fd5b61073b81610d06565b600860009054906101000a900473ffffffffffffffffffffffffffffffffffffffff1673ffffffffffffffffffffffffffffffffffffffff1663f6cfac22826040518263ffffffff1660e01b81526004016107969190611424565b600060405180830381600087803b1580156107b057600080fd5b505af11580156107c4573d6000803e3d6000fd5b5050505050565b600280546107d8906113e4565b80601f0160208091040260200160405190810160405280929190818152602001828054610804906113e4565b80156108515780601f1061082657610100808354040283529160200191610851565b820191906000526020600020905b81548152906001019060200180831161083457829003601f168201915b505050505081565b60058054610866906113e4565b80601f0160208091040260200160405190810160405280929190818152602001828054610892906113e4565b80156108df5780601f106108b4576101008083540402835291602001916108df565b820191906000526020600020905b8154815290600101906020018083116108c257829003601f168201915b505050505081565b60075481565b600480546108fa906113e4565b80601f0160208091040260200160405190810160405280929190818152602001828054610926906113e4565b80156109735780601f1061094857610100808354040283529160200191610973565b820191906000526020600020905b81548152906001019060200180831161095657829003601f168201915b505050505081565b6000803373ffffffffffffffffffffffffffffffffffffffff1673ffffffffffffffffffffffffffffffffffffffff16815260200190815260200160002060009054906101000a900460ff166109d057600080fd5b60008290508073ffffffffffffffffffffffffffffffffffffffff1663d653b09c836040518263ffffffff1660e01b8152600401610a0e91906114fe565b600060405180830381600087803b158015610a2857600080fd5b505af1158015610a3c573d6000803e3d6000fd5b50505050600860009054906101000a900473ffffffffffffffffffffffffffffffffffffffff1673ffffffffffffffffffffffffffffffffffffffff16631bff4a946040518163ffffffff1660e01b8152600401600060405180830381600087803b158015610aaa57600080fd5b505af1158015610abe573d6000803e3d6000fd5b50505050505050565b60068054610ad4906113e4565b80601f0160208091040260200160405190810160405280929190818152602001828054610b00906113e4565b8015610b4d5780601f10610b2257610100808354040283529160200191610b4d565b820191906000526020600020905b815481529060010190602001808311610b3057829003601f168201915b505050505081565b60038054610b62906113e4565b80601f0160208091040260200160405190810160405280929190818152602001828054610b8e906113e4565b8015610bdb5780601f10610bb057610100808354040283529160200191610bdb565b820191906000526020600020905b815481529060010190602001808311610bbe57829003601f168201915b505050505081565b3373ffffffffffffffffffffffffffffffffffffffff16600860009054906101000a900473ffffffffffffffffffffffffffffffffffffffff1673ffffffffffffffffffffffffffffffffffffffff1614610c3d57600080fd5b60076000815480929190610c5090611519565b9190505550565b6000803373ffffffffffffffffffffffffffffffffffffffff1673ffffffffffffffffffffffffffffffffffffffff16815260200190815260200160002060009054906101000a900460ff16610cac57600080fd5b60016000808373ffffffffffffffffffffffffffffffffffffffff1673ffffffffffffffffffffffffffffffffffffffff16815260200190815260200160002060006101000a81548160ff02191690831515021790555050565b6000803373ffffffffffffffffffffffffffffffffffffffff1673ffffffffffffffffffffffffffffffffffffffff16815260200190815260200160002060009054906101000a900460ff16610d5b57600080fd5b60016000808373ffffffffffffffffffffffffffffffffffffffff1673ffffffffffffffffffffffffffffffffffffffff16815260200190815260200160002060006101000a81548160ff02191690831515021790555050565b828054610dc1906113e4565b90600052602060002090601f016020900481019282610de35760008555610e2a565b82601f10610dfc57805160ff1916838001178555610e2a565b82800160010185558215610e2a579182015b82811115610e29578251825591602001919060010190610e0e565b5b509050610e379190610e3b565b5090565b5b80821115610e54576000816000905550600101610e3c565b5090565b600081519050919050565b600082825260208201905092915050565b60005b83811015610e92578082015181840152602081019050610e77565b83811115610ea1576000848401525b50505050565b6000601f19601f8301169050919050565b6000610ec382610e58565b610ecd8185610e63565b9350610edd818560208601610e74565b610ee681610ea7565b840191505092915050565b60006020820190508181036000830152610f0b8184610eb8565b905092915050565b6000604051905090565b600080fd5b600080fd5b600073ffffffffffffffffffffffffffffffffffffffff82169050919050565b6000610f5282610f27565b9050919050565b610f6281610f47565b8114610f6d57600080fd5b50565b600081359050610f7f81610f59565b92915050565b600060208284031215610f9b57610f9a610f1d565b5b6000610fa984828501610f70565b91505092915050565b600080fd5b7f4e487b7100000000000000000000000000000000000000000000000000000000600052604160045260246000fd5b610fef82610ea7565b810181811067ffffffffffffffff8211171561100e5761100d610fb7565b5b80604052505050565b6000611021610f13565b905061102d8282610fe6565b919050565b600067ffffffffffffffff82111561104d5761104c610fb7565b5b602082029050602081019050919050565b600080fd5b600080fd5b600067ffffffffffffffff82111561108357611082610fb7565b5b61108c82610ea7565b9050602081019050919050565b82818337600083830152505050565b60006110bb6110b684611068565b611017565b9050828152602081018484840111156110d7576110d6611063565b5b6110e2848285611099565b509392505050565b600082601f8301126110ff576110fe610fb2565b5b813561110f8482602086016110a8565b91505092915050565b600061112b61112684611032565b611017565b9050808382526020820190506020840283018581111561114e5761114d61105e565b5b835b8181101561119557803567ffffffffffffffff81111561117357611172610fb2565b5b80860161118089826110ea565b85526020850194505050602081019050611150565b5050509392505050565b600082601f8301126111b4576111b3610fb2565b5b81356111c4848260208601611118565b91505092915050565b600067ffffffffffffffff8211156111e8576111e7610fb7565b5b602082029050602081019050919050565b600060ff82169050919050565b61120f816111f9565b811461121a57600080fd5b50565b60008135905061122c81611206565b92915050565b6000611245611240846111cd565b611017565b905080838252602082019050602084028301858111156112685761126761105e565b5b835b81811015611291578061127d888261121d565b84526020840193505060208101905061126a565b5050509392505050565b600082601f8301126112b0576112af610fb2565b5b81356112c0848260208601611232565b91505092915050565b600080604083850312156112e0576112df610f1d565b5b600083013567ffffffffffffffff8111156112fe576112fd610f22565b5b61130a8582860161119f565b925050602083013567ffffffffffffffff81111561132b5761132a610f22565b5b6113378582860161129b565b9150509250929050565b6000819050919050565b61135481611341565b82525050565b600060208201905061136f600083018461134b565b92915050565b6000806040838503121561138c5761138b610f1d565b5b600061139a85828601610f70565b92505060206113ab8582860161121d565b9150509250929050565b7f4e487b7100000000000000000000000000000000000000000000000000000000600052602260045260246000fd5b600060028204905060018216806113fc57607f821691505b60208210810361140f5761140e6113b5565b5b50919050565b61141e81610f47565b82525050565b60006020820190506114396000830184611415565b92915050565b7f4e487b7100000000000000000000000000000000000000000000000000000000600052601160045260246000fd5b600061147982611341565b91506000820361148c5761148b61143f565b5b600182039050919050565b7f4e487b7100000000000000000000000000000000000000000000000000000000600052603260045260246000fd5b60006114d1826111f9565b915060ff82036114e4576114e361143f565b5b600182019050919050565b6114f8816111f9565b82525050565b600060208201905061151360008301846114ef565b92915050565b600061152482611341565b91507fffffffffffffffffffffffffffffffffffffffffffffffffffffffffffffffff82036115565761155561143f565b5b60018201905091905056fea2646970667358221220ed9d01b9131b4a27f1d6c22b8a144fb5a7def0ebf72c82efc382dc098cf44a6964736f6c634300080e0033",
  "immutableReferences": {},
  "source": "// SPDX-License-Identifier: UNLICENSED\r\npragma solidity >=0.8.14;\r\n\r\nimport \"./Ballot.sol\";\r\nimport \"./Utils.sol\";\r\nimport \"./Owned.sol\";\r\n\r\ncontract Party is Owned {\r\n    //Party attributes\r\n    string public name;\r\n    string public description;\r\n    string public image;\r\n    string public website;\r\n    string public email;\r\n    string public electoralProgram;\r\n    uint256 public numberOfMembers;\r\n\r\n    Utils utils;\r\n\r\n    modifier isUtils() {\r\n        require(address(utils) == msg.sender);\r\n        _;\r\n    }\r\n\r\n    modifier isBallot() {\r\n        require(utils.checkIsBallot(msg.sender), \"Invalid ballot\");\r\n        _;\r\n    }\r\n\r\n    constructor(\r\n        address _utils,\r\n        string memory _name,\r\n        string memory _description\r\n    ) {\r\n        name = _name;\r\n        description = _description;\r\n        utils = Utils(_utils);\r\n        utils.addPartyToMapping(address(this), msg.sender);\r\n    }\r\n\r\n    function addOwner(address _addr) public override onlyOwner {\r\n        super.addOwner(_addr);\r\n        utils.addPartyToUser(_addr);\r\n    }\r\n\r\n    function removeOwner(address _addr) public override onlyOwner {\r\n        super.removeOwner(_addr);\r\n        utils.removePartyFromUser(_addr);\r\n    }\r\n\r\n    function partyVote(address ballot, uint8 option) public onlyOwner {\r\n        Ballot b = Ballot(ballot);\r\n        b.partyVote(option);\r\n        utils.setLastVote();\r\n    }\r\n\r\n    function set(string[] memory _fields, uint8[] memory ids) public onlyOwner {\r\n        for (uint8 i = 0; i < _fields.length; i++) {\r\n            if (ids[i] == 0) {\r\n                name = _fields[i];\r\n            } else if (ids[i] == 1) {\r\n                description = _fields[i];\r\n            } else if (ids[i] == 2) {\r\n                image = _fields[i];\r\n            } else if (ids[i] == 3) {\r\n                website = _fields[i];\r\n            } else if (ids[i] == 4) {\r\n                email = _fields[i];\r\n            } else if (ids[i] == 5) {\r\n                electoralProgram = _fields[i];\r\n            }\r\n        }\r\n    }\r\n\r\n    //Setters\r\n    function increaseMembers() public isUtils {\r\n        numberOfMembers++;\r\n    }\r\n\r\n    function decreaseMembers() public isUtils {\r\n        numberOfMembers--;\r\n    }\r\n}\r\n",
  "sourcePath": "C:\\Users\\eduge\\TFG\\voting-contracts-v2\\contracts\\Party.sol",
  "compiler": {
    "name": "solc",
    "version": "0.8.14+commit.80d49f37.Emscripten.clang"
  },
  "schemaVersion": "3.4.9",
  "updatedAt": "2022-09-01T10:57:39.452Z",
  "devdoc": {
    "kind": "dev",
    "methods": {},
    "version": 1
  },
  "userdoc": {
    "kind": "user",
    "methods": {},
    "version": 1
  }
}