{
  "contractName": "Utils",
  "abi": [
    {
      "inputs": [
        {
          "internalType": "address payable",
          "name": "_voteFaucet",
          "type": "address"
        },
        {
          "internalType": "address",
          "name": "_operators",
          "type": "address"
        }
      ],
      "stateMutability": "nonpayable",
      "type": "constructor"
    },
    {
      "inputs": [
        {
          "internalType": "uint8",
          "name": "v",
          "type": "uint8"
        },
        {
          "internalType": "bytes32",
          "name": "r",
          "type": "bytes32"
        },
        {
          "internalType": "bytes32",
          "name": "s",
          "type": "bytes32"
        },
        {
          "internalType": "address payable",
          "name": "sender",
          "type": "address"
        },
        {
          "internalType": "uint32",
          "name": "dni",
          "type": "uint32"
        }
      ],
      "name": "secureRegister",
      "outputs": [],
      "stateMutability": "nonpayable",
      "type": "function"
    },
    {
      "inputs": [
        {
          "internalType": "address",
          "name": "_newParty",
          "type": "address"
        }
      ],
      "name": "changeParty",
      "outputs": [],
      "stateMutability": "nonpayable",
      "type": "function"
    },
    {
      "inputs": [
        {
          "internalType": "address",
          "name": "_party",
          "type": "address"
        },
        {
          "internalType": "address",
          "name": "_owner",
          "type": "address"
        }
      ],
      "name": "addPartyToMapping",
      "outputs": [],
      "stateMutability": "nonpayable",
      "type": "function"
    },
    {
      "inputs": [
        {
          "internalType": "address",
          "name": "_ballot",
          "type": "address"
        },
        {
          "internalType": "address",
          "name": "_owner",
          "type": "address"
        }
      ],
      "name": "addBallotToMapping",
      "outputs": [],
      "stateMutability": "nonpayable",
      "type": "function"
    },
    {
      "inputs": [
        {
          "internalType": "address",
          "name": "_user",
          "type": "address"
        }
      ],
      "name": "addPartyToUser",
      "outputs": [],
      "stateMutability": "nonpayable",
      "type": "function"
    },
    {
      "inputs": [
        {
          "internalType": "address",
          "name": "_user",
          "type": "address"
        }
      ],
      "name": "removePartyFromUser",
      "outputs": [],
      "stateMutability": "nonpayable",
      "type": "function"
    },
    {
      "inputs": [],
      "name": "getParties",
      "outputs": [
        {
          "internalType": "address[]",
          "name": "",
          "type": "address[]"
        }
      ],
      "stateMutability": "view",
      "type": "function"
    },
    {
      "inputs": [
        {
          "internalType": "uint32",
          "name": "_dni",
          "type": "uint32"
        },
        {
          "internalType": "address",
          "name": "_address",
          "type": "address"
        }
      ],
      "name": "checkDniAddress",
      "outputs": [
        {
          "internalType": "bool",
          "name": "",
          "type": "bool"
        }
      ],
      "stateMutability": "view",
      "type": "function"
    },
    {
      "inputs": [
        {
          "internalType": "address",
          "name": "_address",
          "type": "address"
        }
      ],
      "name": "isRegistered",
      "outputs": [
        {
          "internalType": "bool",
          "name": "",
          "type": "bool"
        }
      ],
      "stateMutability": "view",
      "type": "function"
    },
    {
      "inputs": [
        {
          "internalType": "address",
          "name": "_user",
          "type": "address"
        }
      ],
      "name": "checkParty",
      "outputs": [
        {
          "internalType": "address",
          "name": "",
          "type": "address"
        }
      ],
      "stateMutability": "view",
      "type": "function"
    },
    {
      "inputs": [
        {
          "internalType": "address",
          "name": "_sender",
          "type": "address"
        }
      ],
      "name": "checkIsParty",
      "outputs": [
        {
          "internalType": "bool",
          "name": "",
          "type": "bool"
        }
      ],
      "stateMutability": "view",
      "type": "function"
    },
    {
      "inputs": [
        {
          "internalType": "address",
          "name": "_sender",
          "type": "address"
        }
      ],
      "name": "checkIsBallot",
      "outputs": [
        {
          "internalType": "bool",
          "name": "",
          "type": "bool"
        }
      ],
      "stateMutability": "view",
      "type": "function"
    },
    {
      "inputs": [],
      "name": "setLastVote",
      "outputs": [],
      "stateMutability": "nonpayable",
      "type": "function"
    },
    {
      "inputs": [
        {
          "internalType": "address",
          "name": "_user",
          "type": "address"
        }
      ],
      "name": "getLastPartyUpdate",
      "outputs": [
        {
          "internalType": "uint256",
          "name": "",
          "type": "uint256"
        }
      ],
      "stateMutability": "view",
      "type": "function"
    },
    {
      "inputs": [],
      "name": "getPartyIn",
      "outputs": [
        {
          "internalType": "address",
          "name": "",
          "type": "address"
        }
      ],
      "stateMutability": "view",
      "type": "function"
    }
  ],
  "bytecode": "0x60806040523480156200001157600080fd5b5060405162002c0f38038062002c0f8339818101604052810190620000379190620002e4565b80600960006101000a81548173ffffffffffffffffffffffffffffffffffffffff021916908373ffffffffffffffffffffffffffffffffffffffff160217905550600960009054906101000a900473ffffffffffffffffffffffffffffffffffffffff1673ffffffffffffffffffffffffffffffffffffffff16632f54bf6e336040518263ffffffff1660e01b8152600401620000d591906200033c565b602060405180830381865afa158015620000f3573d6000803e3d6000fd5b505050506040513d601f19601f8201168201806040525081019062000119919062000396565b6200015b576040517f08c379a000000000000000000000000000000000000000000000000000000000815260040162000152906200044f565b60405180910390fd5b81600860006101000a81548173ffffffffffffffffffffffffffffffffffffffff021916908373ffffffffffffffffffffffffffffffffffffffff160217905550600860009054906101000a900473ffffffffffffffffffffffffffffffffffffffff1673ffffffffffffffffffffffffffffffffffffffff166369953501336040518263ffffffff1660e01b8152600401620001f991906200033c565b600060405180830381600087803b1580156200021457600080fd5b505af115801562000229573d6000803e3d6000fd5b50505050505062000471565b600080fd5b600073ffffffffffffffffffffffffffffffffffffffff82169050919050565b600062000267826200023a565b9050919050565b62000279816200025a565b81146200028557600080fd5b50565b60008151905062000299816200026e565b92915050565b6000620002ac826200023a565b9050919050565b620002be816200029f565b8114620002ca57600080fd5b50565b600081519050620002de81620002b3565b92915050565b60008060408385031215620002fe57620002fd62000235565b5b60006200030e8582860162000288565b92505060206200032185828601620002cd565b9150509250929050565b62000336816200029f565b82525050565b60006020820190506200035360008301846200032b565b92915050565b60008115159050919050565b620003708162000359565b81146200037c57600080fd5b50565b600081519050620003908162000365565b92915050565b600060208284031215620003af57620003ae62000235565b5b6000620003bf848285016200037f565b91505092915050565b600082825260208201905092915050565b7f4f6e6c7920616e206f776e65722063616e2063616c6c20746869732066756e6360008201527f74696f6e00000000000000000000000000000000000000000000000000000000602082015250565b600062000437602483620003c8565b91506200044482620003d9565b604082019050919050565b600060208201905081810360008301526200046a8162000428565b9050919050565b61278e80620004816000396000f3fe608060405234801561001057600080fd5b50600436106100f55760003560e01c8063c3c5a54711610097578063ebd9955011610066578063ebd9955014610284578063f6cfac22146102a0578063f8b2e512146102bc578063fcb0ed0d146102ec576100f5565b8063c3c5a547146101c4578063c8639c6b146101f4578063ccaef2bb14610224578063e132b73a14610254576100f5565b80635c253c8f116100d35780635c253c8f146101525780636bf146991461016e578063a8311aa81461018a578063c1030352146101a8576100f5565b80631bff4a94146100fa578063454b15bf14610104578063586ad9fe14610122575b600080fd5b610102610308565b005b61010c6103da565b6040516101199190611a05565b60405180910390f35b61013c60048036038101906101379190611a51565b610441565b6040516101499190611a97565b60405180910390f35b61016c60048036038101906101679190611a51565b610516565b005b61018860048036038101906101839190611b9b565b6108e8565b005b610192610ea2565b60405161019f9190611cd4565b60405180910390f35b6101c260048036038101906101bd9190611a51565b610f6d565b005b6101de60048036038101906101d99190611a51565b6113b5565b6040516101eb9190611d11565b60405180910390f35b61020e60048036038101906102099190611d2c565b611416565b60405161021b9190611d11565b60405180910390f35b61023e60048036038101906102399190611a51565b61148e565b60405161024b9190611d11565b60405180910390f35b61026e60048036038101906102699190611a51565b6114e4565b60405161027b9190611a05565b60405180910390f35b61029e60048036038101906102999190611d6c565b611595565b005b6102ba60048036038101906102b59190611a51565b6116c6565b005b6102d660048036038101906102d19190611a51565b61183d565b6040516102e39190611d11565b60405180910390f35b61030660048036038101906103019190611d6c565b611893565b005b600660003373ffffffffffffffffffffffffffffffffffffffff1673ffffffffffffffffffffffffffffffffffffffff16815260200190815260200160002060009054906101000a900460ff16610394576040517f08c379a000000000000000000000000000000000000000000000000000000000815260040161038b90611e09565b60405180910390fd5b42600560003373ffffffffffffffffffffffffffffffffffffffff1673ffffffffffffffffffffffffffffffffffffffff16815260200190815260200160002081905550565b6000600260003373ffffffffffffffffffffffffffffffffffffffff1673ffffffffffffffffffffffffffffffffffffffff16815260200190815260200160002060009054906101000a900473ffffffffffffffffffffffffffffffffffffffff16905090565b6000600760003373ffffffffffffffffffffffffffffffffffffffff1673ffffffffffffffffffffffffffffffffffffffff16815260200190815260200160002060009054906101000a900460ff166104cf576040517f08c379a00000000000000000000000000000000000000000000000000000000081526004016104c690611e75565b60405180910390fd5b600460008373ffffffffffffffffffffffffffffffffffffffff1673ffffffffffffffffffffffffffffffffffffffff168152602001908152602001600020549050919050565b600660003373ffffffffffffffffffffffffffffffffffffffff1673ffffffffffffffffffffffffffffffffffffffff16815260200190815260200160002060009054906101000a900460ff166105a2576040517f08c379a000000000000000000000000000000000000000000000000000000000815260040161059990611ee1565b60405180910390fd5b6105ab816113b5565b6105ea576040517f08c379a00000000000000000000000000000000000000000000000000000000081526004016105e190611f4d565b60405180910390fd5b60005b600360008373ffffffffffffffffffffffffffffffffffffffff1673ffffffffffffffffffffffffffffffffffffffff168152602001908152602001600020805490508110156108e4573373ffffffffffffffffffffffffffffffffffffffff16600360008473ffffffffffffffffffffffffffffffffffffffff1673ffffffffffffffffffffffffffffffffffffffff168152602001908152602001600020828154811061069f5761069e611f6d565b5b9060005260206000200160009054906101000a900473ffffffffffffffffffffffffffffffffffffffff1673ffffffffffffffffffffffffffffffffffffffff16036108d157600360008373ffffffffffffffffffffffffffffffffffffffff1673ffffffffffffffffffffffffffffffffffffffff1681526020019081526020016000206001600360008573ffffffffffffffffffffffffffffffffffffffff1673ffffffffffffffffffffffffffffffffffffffff168152602001908152602001600020805490506107739190611fcb565b8154811061078457610783611f6d565b5b9060005260206000200160009054906101000a900473ffffffffffffffffffffffffffffffffffffffff16600360008473ffffffffffffffffffffffffffffffffffffffff1673ffffffffffffffffffffffffffffffffffffffff1681526020019081526020016000208281548110610800576107ff611f6d565b5b9060005260206000200160006101000a81548173ffffffffffffffffffffffffffffffffffffffff021916908373ffffffffffffffffffffffffffffffffffffffff160217905550600360008373ffffffffffffffffffffffffffffffffffffffff1673ffffffffffffffffffffffffffffffffffffffff16815260200190815260200160002080548061089757610896611fff565b5b6001900381819060005260206000200160006101000a81549073ffffffffffffffffffffffffffffffffffffffff021916905590556108e4565b80806108dc9061202e565b9150506105ed565b5050565b600960009054906101000a900473ffffffffffffffffffffffffffffffffffffffff1673ffffffffffffffffffffffffffffffffffffffff16632f54bf6e336040518263ffffffff1660e01b81526004016109439190611a05565b602060405180830381865afa158015610960573d6000803e3d6000fd5b505050506040513d601f19601f8201168201806040525081019061098491906120a2565b61098d57600080fd5b60008060008473ffffffffffffffffffffffffffffffffffffffff1673ffffffffffffffffffffffffffffffffffffffff16815260200190815260200160002060009054906101000a900463ffffffff1663ffffffff1614610a24576040517f08c379a0000000000000000000000000000000000000000000000000000000008152600401610a1b9061211b565b60405180910390fd5b600073ffffffffffffffffffffffffffffffffffffffff16600160008363ffffffff1663ffffffff16815260200190815260200160002060009054906101000a900473ffffffffffffffffffffffffffffffffffffffff1673ffffffffffffffffffffffffffffffffffffffff1614610ad2576040517f08c379a0000000000000000000000000000000000000000000000000000000008152600401610ac990612187565b60405180910390fd5b600046905060007f8b73c3c69bb8fe3d512ecc4cf759cc79239f7b179b0ffacaa9a75d522b39400f6040518060400160405280600781526020017f6e65775573657200000000000000000000000000000000000000000000000000815250805190602001206040518060400160405280600181526020017f3100000000000000000000000000000000000000000000000000000000000000815250805190602001208430604051602001610b8a9594939291906121b6565b60405160208183030381529060405280519060200120905060007f8f25d81790b4afefdf0dc1a25c9048944e3ce0bdf488d49677162dcf40637b8d8585604051602001610bd993929190612227565b60405160208183030381529060405280519060200120905060008282604051602001610c069291906122d6565b60405160208183030381529060405280519060200120905060006001828b8b8b60405160008152602001604052604051610c43949392919061231c565b6020604051602081039080840390855afa158015610c65573d6000803e3d6000fd5b505050602060405103519050600073ffffffffffffffffffffffffffffffffffffffff168173ffffffffffffffffffffffffffffffffffffffff1603610ce0576040517f08c379a0000000000000000000000000000000000000000000000000000000008152600401610cd7906123ad565b60405180910390fd5b8673ffffffffffffffffffffffffffffffffffffffff168173ffffffffffffffffffffffffffffffffffffffff1614610d4e576040517f08c379a0000000000000000000000000000000000000000000000000000000008152600401610d4590612419565b60405180910390fd5b856000808973ffffffffffffffffffffffffffffffffffffffff1673ffffffffffffffffffffffffffffffffffffffff16815260200190815260200160002060006101000a81548163ffffffff021916908363ffffffff16021790555086600160008863ffffffff1663ffffffff16815260200190815260200160002060006101000a81548173ffffffffffffffffffffffffffffffffffffffff021916908373ffffffffffffffffffffffffffffffffffffffff160217905550600860009054906101000a900473ffffffffffffffffffffffffffffffffffffffff1673ffffffffffffffffffffffffffffffffffffffff16635d365ce0886040518263ffffffff1660e01b8152600401610e649190612439565b600060405180830381600087803b158015610e7e57600080fd5b505af1158015610e92573d6000803e3d6000fd5b5050505050505050505050505050565b6060600360003373ffffffffffffffffffffffffffffffffffffffff1673ffffffffffffffffffffffffffffffffffffffff168152602001908152602001600020805480602002602001604051908101604052809291908181526020018280548015610f6357602002820191906000526020600020905b8160009054906101000a900473ffffffffffffffffffffffffffffffffffffffff1673ffffffffffffffffffffffffffffffffffffffff1681526020019060010190808311610f19575b5050505050905090565b8073ffffffffffffffffffffffffffffffffffffffff16600260003373ffffffffffffffffffffffffffffffffffffffff1673ffffffffffffffffffffffffffffffffffffffff16815260200190815260200160002060009054906101000a900473ffffffffffffffffffffffffffffffffffffffff1673ffffffffffffffffffffffffffffffffffffffff160361103a576040517f08c379a0000000000000000000000000000000000000000000000000000000008152600401611031906124a0565b60405180910390fd5b6000600260003373ffffffffffffffffffffffffffffffffffffffff1673ffffffffffffffffffffffffffffffffffffffff16815260200190815260200160002060009054906101000a900473ffffffffffffffffffffffffffffffffffffffff169050600073ffffffffffffffffffffffffffffffffffffffff168173ffffffffffffffffffffffffffffffffffffffff16146111c8574262015180600560008473ffffffffffffffffffffffffffffffffffffffff1673ffffffffffffffffffffffffffffffffffffffff1681526020019081526020016000205461112191906124c0565b10611161576040517f08c379a000000000000000000000000000000000000000000000000000000000815260040161115890612588565b60405180910390fd5b60008190508073ffffffffffffffffffffffffffffffffffffffff16635b1384976040518163ffffffff1660e01b8152600401600060405180830381600087803b1580156111ae57600080fd5b505af11580156111c2573d6000803e3d6000fd5b50505050505b600073ffffffffffffffffffffffffffffffffffffffff168273ffffffffffffffffffffffffffffffffffffffff16146112ef57600660008373ffffffffffffffffffffffffffffffffffffffff1673ffffffffffffffffffffffffffffffffffffffff16815260200190815260200160002060009054906101000a900460ff16611288576040517f08c379a000000000000000000000000000000000000000000000000000000000815260040161127f90611ee1565b60405180910390fd5b60008290508073ffffffffffffffffffffffffffffffffffffffff1663f7b85eb36040518163ffffffff1660e01b8152600401600060405180830381600087803b1580156112d557600080fd5b505af11580156112e9573d6000803e3d6000fd5b50505050505b81600260003373ffffffffffffffffffffffffffffffffffffffff1673ffffffffffffffffffffffffffffffffffffffff16815260200190815260200160002060006101000a81548173ffffffffffffffffffffffffffffffffffffffff021916908373ffffffffffffffffffffffffffffffffffffffff16021790555042600460003373ffffffffffffffffffffffffffffffffffffffff1673ffffffffffffffffffffffffffffffffffffffff168152602001908152602001600020819055505050565b6000806000808473ffffffffffffffffffffffffffffffffffffffff1673ffffffffffffffffffffffffffffffffffffffff16815260200190815260200160002060009054906101000a900463ffffffff1663ffffffff1614159050919050565b60008173ffffffffffffffffffffffffffffffffffffffff16600160008563ffffffff1663ffffffff16815260200190815260200160002060009054906101000a900473ffffffffffffffffffffffffffffffffffffffff1673ffffffffffffffffffffffffffffffffffffffff1614905092915050565b6000600760008373ffffffffffffffffffffffffffffffffffffffff1673ffffffffffffffffffffffffffffffffffffffff16815260200190815260200160002060009054906101000a900460ff169050919050565b60006114ef3361148e565b61152e576040517f08c379a0000000000000000000000000000000000000000000000000000000008152600401611525906125f4565b60405180910390fd5b600260008373ffffffffffffffffffffffffffffffffffffffff1673ffffffffffffffffffffffffffffffffffffffff16815260200190815260200160002060009054906101000a900473ffffffffffffffffffffffffffffffffffffffff169050919050565b600660008373ffffffffffffffffffffffffffffffffffffffff1673ffffffffffffffffffffffffffffffffffffffff16815260200190815260200160002060009054906101000a900460ff1615611622576040517f08c379a000000000000000000000000000000000000000000000000000000000815260040161161990612660565b60405180910390fd5b61162b816113b5565b61166a576040517f08c379a0000000000000000000000000000000000000000000000000000000008152600401611661906126cc565b60405180910390fd5b6001600660008473ffffffffffffffffffffffffffffffffffffffff1673ffffffffffffffffffffffffffffffffffffffff16815260200190815260200160002060006101000a81548160ff0219169083151502179055505050565b600660003373ffffffffffffffffffffffffffffffffffffffff1673ffffffffffffffffffffffffffffffffffffffff16815260200190815260200160002060009054906101000a900460ff16611752576040517f08c379a000000000000000000000000000000000000000000000000000000000815260040161174990611ee1565b60405180910390fd5b61175b816113b5565b61179a576040517f08c379a000000000000000000000000000000000000000000000000000000000815260040161179190611f4d565b60405180910390fd5b600360008273ffffffffffffffffffffffffffffffffffffffff1673ffffffffffffffffffffffffffffffffffffffff168152602001908152602001600020339080600181540180825580915050600190039060005260206000200160009091909190916101000a81548173ffffffffffffffffffffffffffffffffffffffff021916908373ffffffffffffffffffffffffffffffffffffffff16021790555050565b6000600660008373ffffffffffffffffffffffffffffffffffffffff1673ffffffffffffffffffffffffffffffffffffffff16815260200190815260200160002060009054906101000a900460ff169050919050565b600760008373ffffffffffffffffffffffffffffffffffffffff1673ffffffffffffffffffffffffffffffffffffffff16815260200190815260200160002060009054906101000a900460ff1615611920576040517f08c379a000000000000000000000000000000000000000000000000000000000815260040161191790612738565b60405180910390fd5b611929816113b5565b611968576040517f08c379a000000000000000000000000000000000000000000000000000000000815260040161195f906126cc565b60405180910390fd5b6001600760008473ffffffffffffffffffffffffffffffffffffffff1673ffffffffffffffffffffffffffffffffffffffff16815260200190815260200160002060006101000a81548160ff0219169083151502179055505050565b600073ffffffffffffffffffffffffffffffffffffffff82169050919050565b60006119ef826119c4565b9050919050565b6119ff816119e4565b82525050565b6000602082019050611a1a60008301846119f6565b92915050565b600080fd5b611a2e816119e4565b8114611a3957600080fd5b50565b600081359050611a4b81611a25565b92915050565b600060208284031215611a6757611a66611a20565b5b6000611a7584828501611a3c565b91505092915050565b6000819050919050565b611a9181611a7e565b82525050565b6000602082019050611aac6000830184611a88565b92915050565b600060ff82169050919050565b611ac881611ab2565b8114611ad357600080fd5b50565b600081359050611ae581611abf565b92915050565b6000819050919050565b611afe81611aeb565b8114611b0957600080fd5b50565b600081359050611b1b81611af5565b92915050565b6000611b2c826119c4565b9050919050565b611b3c81611b21565b8114611b4757600080fd5b50565b600081359050611b5981611b33565b92915050565b600063ffffffff82169050919050565b611b7881611b5f565b8114611b8357600080fd5b50565b600081359050611b9581611b6f565b92915050565b600080600080600060a08688031215611bb757611bb6611a20565b5b6000611bc588828901611ad6565b9550506020611bd688828901611b0c565b9450506040611be788828901611b0c565b9350506060611bf888828901611b4a565b9250506080611c0988828901611b86565b9150509295509295909350565b600081519050919050565b600082825260208201905092915050565b6000819050602082019050919050565b611c4b816119e4565b82525050565b6000611c5d8383611c42565b60208301905092915050565b6000602082019050919050565b6000611c8182611c16565b611c8b8185611c21565b9350611c9683611c32565b8060005b83811015611cc7578151611cae8882611c51565b9750611cb983611c69565b925050600181019050611c9a565b5085935050505092915050565b60006020820190508181036000830152611cee8184611c76565b905092915050565b60008115159050919050565b611d0b81611cf6565b82525050565b6000602082019050611d266000830184611d02565b92915050565b60008060408385031215611d4357611d42611a20565b5b6000611d5185828601611b86565b9250506020611d6285828601611a3c565b9150509250929050565b60008060408385031215611d8357611d82611a20565b5b6000611d9185828601611a3c565b9250506020611da285828601611a3c565b9150509250929050565b600082825260208201905092915050565b7f4e6f742061207061727479000000000000000000000000000000000000000000600082015250565b6000611df3600b83611dac565b9150611dfe82611dbd565b602082019050919050565b60006020820190508181036000830152611e2281611de6565b9050919050565b7f4e6f7420612062616c6c6f740000000000000000000000000000000000000000600082015250565b6000611e5f600c83611dac565b9150611e6a82611e29565b602082019050919050565b60006020820190508181036000830152611e8e81611e52565b9050919050565b7f496e76616c696420706172747900000000000000000000000000000000000000600082015250565b6000611ecb600d83611dac565b9150611ed682611e95565b602082019050919050565b60006020820190508181036000830152611efa81611ebe565b9050919050565b7f55736572206e6f74207265676973746572656400000000000000000000000000600082015250565b6000611f37601383611dac565b9150611f4282611f01565b602082019050919050565b60006020820190508181036000830152611f6681611f2a565b9050919050565b7f4e487b7100000000000000000000000000000000000000000000000000000000600052603260045260246000fd5b7f4e487b7100000000000000000000000000000000000000000000000000000000600052601160045260246000fd5b6000611fd682611a7e565b9150611fe183611a7e565b925082821015611ff457611ff3611f9c565b5b828203905092915050565b7f4e487b7100000000000000000000000000000000000000000000000000000000600052603160045260246000fd5b600061203982611a7e565b91507fffffffffffffffffffffffffffffffffffffffffffffffffffffffffffffffff820361206b5761206a611f9c565b5b600182019050919050565b61207f81611cf6565b811461208a57600080fd5b50565b60008151905061209c81612076565b92915050565b6000602082840312156120b8576120b7611a20565b5b60006120c68482850161208d565b91505092915050565b7f596f752061726520616c72656164792072656769737465726564000000000000600082015250565b6000612105601a83611dac565b9150612110826120cf565b602082019050919050565b60006020820190508181036000830152612134816120f8565b9050919050565b7f444e4920616c7265616479207265676973746572656400000000000000000000600082015250565b6000612171601683611dac565b915061217c8261213b565b602082019050919050565b600060208201905081810360008301526121a081612164565b9050919050565b6121b081611aeb565b82525050565b600060a0820190506121cb60008301886121a7565b6121d860208301876121a7565b6121e560408301866121a7565b6121f26060830185611a88565b6121ff60808301846119f6565b9695505050505050565b61221281611b21565b82525050565b61222181611b5f565b82525050565b600060608201905061223c60008301866121a7565b6122496020830185612209565b6122566040830184612218565b949350505050565b600081905092915050565b7f1901000000000000000000000000000000000000000000000000000000000000600082015250565b600061229f60028361225e565b91506122aa82612269565b600282019050919050565b6000819050919050565b6122d06122cb82611aeb565b6122b5565b82525050565b60006122e182612292565b91506122ed82856122bf565b6020820191506122fd82846122bf565b6020820191508190509392505050565b61231681611ab2565b82525050565b600060808201905061233160008301876121a7565b61233e602083018661230d565b61234b60408301856121a7565b61235860608301846121a7565b95945050505050565b7f45434453413a20696e76616c6964207369676e61747572650000000000000000600082015250565b6000612397601883611dac565b91506123a282612361565b602082019050919050565b600060208201905081810360008301526123c68161238a565b9050919050565b7f4d7946756e6374696f6e3a20696e76616c6964207369676e6174757265000000600082015250565b6000612403601d83611dac565b915061240e826123cd565b602082019050919050565b60006020820190508181036000830152612432816123f6565b9050919050565b600060208201905061244e6000830184612209565b92915050565b7f596f752061726520616c726561647920696e2074686973207061727479000000600082015250565b600061248a601d83611dac565b915061249582612454565b602082019050919050565b600060208201905081810360008301526124b98161247d565b9050919050565b60006124cb82611a7e565b91506124d683611a7e565b9250827fffffffffffffffffffffffffffffffffffffffffffffffffffffffffffffffff0382111561250b5761250a611f9c565b5b828201905092915050565b7f596f752063616e2774206c6561766520612070617274792c207468652070617260008201527f747920686173206a75737420766f746564000000000000000000000000000000602082015250565b6000612572603183611dac565b915061257d82612516565b604082019050919050565b600060208201905081810360008301526125a181612565565b9050919050565b7f596f7520617265206e6f7420612062616c6c6f74000000000000000000000000600082015250565b60006125de601483611dac565b91506125e9826125a8565b602082019050919050565b6000602082019050818103600083015261260d816125d1565b9050919050565b7f506172747920616c726561647920696e206d617070696e670000000000000000600082015250565b600061264a601883611dac565b915061265582612614565b602082019050919050565b600060208201905081810360008301526126798161263d565b9050919050565b7f4f776e6572206e6f742072656769737465726564000000000000000000000000600082015250565b60006126b6601483611dac565b91506126c182612680565b602082019050919050565b600060208201905081810360008301526126e5816126a9565b9050919050565b7f42616c6c6f7420616c726561647920696e206d617070696e6700000000000000600082015250565b6000612722601983611dac565b915061272d826126ec565b602082019050919050565b6000602082019050818103600083015261275181612715565b905091905056fea26469706673582212202ff2ab0c86e53c155ac29ae60760193d6478f18d9dc0eb9b2ef7888ed74bb7db64736f6c634300080e0033",
  "immutableReferences": {},
  "source": "// SPDX-License-Identifier: UNLICENSED\r\npragma solidity >=0.8.14;\r\n\r\nimport \"./Owned.sol\";\r\nimport \"./VoteFaucet.sol\";\r\nimport \"./Party.sol\";\r\nimport \"./Operators.sol\";\r\nimport \"./Ballot.sol\";\r\n\r\ncontract Utils {\r\n    //Turns address to dni and viceversa\r\n    mapping(address => uint32) private addressToDni;\r\n    mapping(uint32 => address) private dniToAddress;\r\n\r\n    //Mapping that stores the party of each person\r\n    mapping(address => address) private inParty;\r\n    mapping(address => address[]) private userParties;\r\n\r\n    //Mapping that stores when a person joined or left a party\r\n    mapping(address => uint256) private userPartyUpdate;\r\n    mapping(address => uint256) private partyLastVote;\r\n\r\n    mapping(address => bool) private isParty;\r\n    mapping(address => bool) private isBallot;\r\n\r\n    VoteFaucet voteFaucet;\r\n    Operators operators;\r\n\r\n    //----------------------CONSTRUCTOR-----------------------\r\n\r\n    constructor(address payable _voteFaucet, address _operators) {\r\n        operators = Operators(_operators);\r\n        require(\r\n            operators.isOwner(msg.sender),\r\n            \"Only an owner can call this function\"\r\n        );\r\n        voteFaucet = VoteFaucet(_voteFaucet);\r\n        voteFaucet.setUtils(msg.sender);\r\n    }\r\n\r\n    //-----------------------FUNCTIONS------------------------\r\n\r\n    function secureRegister(\r\n        uint8 v,\r\n        bytes32 r,\r\n        bytes32 s,\r\n        address payable sender,\r\n        uint32 dni\r\n    ) public {\r\n        require(operators.isOwner(msg.sender));\r\n        require(addressToDni[sender] == 0, \"You are already registered\");\r\n        require(dniToAddress[dni] == address(0), \"DNI already registered\");\r\n\r\n        uint256 chainId;\r\n        assembly {\r\n            chainId := chainid()\r\n        }\r\n\r\n        bytes32 eip712DomainHash = keccak256(\r\n            abi.encode(\r\n                keccak256(\r\n                    \"EIP712Domain(string name,string version,uint256 chainId,address verifyingContract)\"\r\n                ),\r\n                keccak256(bytes(\"newUser\")),\r\n                keccak256(bytes(\"1\")),\r\n                chainId,\r\n                address(this)\r\n            )\r\n        );\r\n\r\n        bytes32 hashStruct = keccak256(\r\n            abi.encode(\r\n                keccak256(\"secureRegister(address sender,uint dni)\"),\r\n                sender,\r\n                dni\r\n            )\r\n        );\r\n\r\n        bytes32 hash = keccak256(\r\n            abi.encodePacked(\"\\x19\\x01\", eip712DomainHash, hashStruct)\r\n        );\r\n\r\n        address signer = ecrecover(hash, v, r, s);\r\n        require(signer != address(0), \"ECDSA: invalid signature\");\r\n        require(signer == sender, \"MyFunction: invalid signature\");\r\n\r\n        addressToDni[sender] = dni;\r\n        dniToAddress[dni] = sender;\r\n\r\n        voteFaucet.registerPay(sender);\r\n    }\r\n\r\n    function changeParty(address _newParty) public {\r\n        require(\r\n            inParty[msg.sender] != _newParty,\r\n            \"You are already in this party\"\r\n        );\r\n\r\n        address oldPartyAddress = inParty[msg.sender];\r\n\r\n        if (oldPartyAddress != address(0)) {\r\n            require(\r\n                partyLastVote[oldPartyAddress] + 1 days < block.timestamp,\r\n                \"You can't leave a party, the party has just voted\"\r\n            );\r\n            Party oldParty = Party(oldPartyAddress);\r\n            oldParty.decreaseMembers();\r\n        }\r\n\r\n        if (_newParty != address(0)) {\r\n            require(isParty[_newParty], \"Invalid party\");\r\n            Party newParty = Party(_newParty);\r\n            newParty.increaseMembers();\r\n        }\r\n\r\n        inParty[msg.sender] = _newParty;\r\n        userPartyUpdate[msg.sender] = block.timestamp;\r\n    }\r\n\r\n    function addPartyToMapping(address _party, address _owner) public {\r\n        require(!isParty[_party], \"Party already in mapping\");\r\n        require(isRegistered(_owner), \"Owner not registered\");\r\n        isParty[_party] = true;\r\n    }\r\n\r\n    function addBallotToMapping(address _ballot, address _owner) public {\r\n        require(!isBallot[_ballot], \"Ballot already in mapping\");\r\n        require(isRegistered(_owner), \"Owner not registered\");\r\n        isBallot[_ballot] = true;\r\n    }\r\n\r\n    function addPartyToUser(address _user) public {\r\n        require(isParty[msg.sender], \"Invalid party\");\r\n        require(isRegistered(_user), \"User not registered\");\r\n        userParties[_user].push(msg.sender);\r\n    }\r\n\r\n    function removePartyFromUser(address _user) public {\r\n        require(isParty[msg.sender], \"Invalid party\");\r\n        require(isRegistered(_user), \"User not registered\");\r\n        for (uint256 i = 0; i < userParties[_user].length; i++) {\r\n            if (userParties[_user][i] == msg.sender) {\r\n                userParties[_user][i] = userParties[_user][\r\n                    userParties[_user].length - 1\r\n                ];\r\n                userParties[_user].pop();\r\n                break;\r\n            }\r\n        }\r\n    }\r\n\r\n    function getParties() public view returns (address[] memory) {\r\n        return userParties[msg.sender];\r\n    }\r\n\r\n    //Check if dni and address correspond to each other\r\n    function checkDniAddress(uint32 _dni, address _address)\r\n        public\r\n        view\r\n        returns (bool)\r\n    {\r\n        return dniToAddress[_dni] == _address;\r\n    }\r\n\r\n    //Check if person is registered\r\n    function isRegistered(address _address) public view returns (bool) {\r\n        return addressToDni[_address] != 0;\r\n    }\r\n\r\n    //Check users party\r\n    function checkParty(address _user) public view returns (address) {\r\n        require(checkIsBallot(msg.sender), \"You are not a ballot\");\r\n        return inParty[_user];\r\n    }\r\n\r\n    function checkIsParty(address _sender) public view returns (bool) {\r\n        return isParty[_sender];\r\n    }\r\n\r\n    function checkIsBallot(address _sender) public view returns (bool) {\r\n        return isBallot[_sender];\r\n    }\r\n\r\n    function setLastVote() public {\r\n        require(isParty[msg.sender], \"Not a party\");\r\n        partyLastVote[msg.sender] = block.timestamp;\r\n    }\r\n\r\n    function getLastPartyUpdate(address _user) public view returns (uint256) {\r\n        require(isBallot[msg.sender], \"Not a ballot\");\r\n        return userPartyUpdate[_user];\r\n    }\r\n\r\n    function getPartyIn() public view returns (address) {\r\n        return inParty[msg.sender];\r\n    }\r\n}\r\n",
  "sourcePath": "C:\\Users\\eduge\\TFG\\voting-contracts-v2\\contracts\\Utils.sol",
  "compiler": {
    "name": "solc",
    "version": "0.8.14+commit.80d49f37.Emscripten.clang"
  },
  "schemaVersion": "3.4.9",
  "updatedAt": "2022-09-05T09:58:36.398Z",
  "devdoc": {
    "kind": "dev",
    "methods": {},
    "version": 1
  },
  "userdoc": {
    "kind": "user",
    "methods": {},
    "version": 1
  }
}