{
  "contractName": "Ballot",
  "abi": [
    {
      "inputs": [
        {
          "internalType": "string",
          "name": "_question",
          "type": "string"
        },
        {
          "internalType": "string[]",
          "name": "_options",
          "type": "string[]"
        },
        {
          "internalType": "address",
          "name": "_utils",
          "type": "address"
        }
      ],
      "stateMutability": "nonpayable",
      "type": "constructor"
    },
    {
      "inputs": [
        {
          "internalType": "address",
          "name": "_addr",
          "type": "address"
        }
      ],
      "name": "addOwner",
      "outputs": [],
      "stateMutability": "nonpayable",
      "type": "function"
    },
    {
      "inputs": [
        {
          "internalType": "uint256",
          "name": "",
          "type": "uint256"
        }
      ],
      "name": "options",
      "outputs": [
        {
          "internalType": "string",
          "name": "",
          "type": "string"
        }
      ],
      "stateMutability": "view",
      "type": "function"
    },
    {
      "inputs": [
        {
          "internalType": "address",
          "name": "_addr",
          "type": "address"
        }
      ],
      "name": "removeOwner",
      "outputs": [],
      "stateMutability": "nonpayable",
      "type": "function"
    },
    {
      "inputs": [
        {
          "internalType": "uint256",
          "name": "option",
          "type": "uint256"
        }
      ],
      "name": "vote",
      "outputs": [],
      "stateMutability": "nonpayable",
      "type": "function"
    },
    {
      "inputs": [
        {
          "internalType": "uint8",
          "name": "option",
          "type": "uint8"
        }
      ],
      "name": "partyVote",
      "outputs": [],
      "stateMutability": "nonpayable",
      "type": "function"
    },
    {
      "inputs": [
        {
          "internalType": "uint256[]",
          "name": "_periods",
          "type": "uint256[]"
        }
      ],
      "name": "setPeriods",
      "outputs": [],
      "stateMutability": "nonpayable",
      "type": "function"
    },
    {
      "inputs": [
        {
          "internalType": "address[]",
          "name": "parties",
          "type": "address[]"
        }
      ],
      "name": "getPartyVotes",
      "outputs": [
        {
          "internalType": "int8[]",
          "name": "",
          "type": "int8[]"
        }
      ],
      "stateMutability": "view",
      "type": "function"
    },
    {
      "inputs": [],
      "name": "getState",
      "outputs": [
        {
          "internalType": "uint8",
          "name": "",
          "type": "uint8"
        }
      ],
      "stateMutability": "view",
      "type": "function"
    },
    {
      "inputs": [],
      "name": "untilNextState",
      "outputs": [
        {
          "internalType": "uint256",
          "name": "",
          "type": "uint256"
        }
      ],
      "stateMutability": "view",
      "type": "function"
    },
    {
      "inputs": [],
      "name": "getData",
      "outputs": [
        {
          "components": [
            {
              "internalType": "string",
              "name": "question",
              "type": "string"
            },
            {
              "internalType": "string[]",
              "name": "options",
              "type": "string[]"
            },
            {
              "internalType": "uint8",
              "name": "state",
              "type": "uint8"
            },
            {
              "internalType": "uint256",
              "name": "untilNextState",
              "type": "uint256"
            }
          ],
          "internalType": "struct Ballot.BallotData",
          "name": "",
          "type": "tuple"
        }
      ],
      "stateMutability": "view",
      "type": "function"
    },
    {
      "inputs": [],
      "name": "getVotes",
      "outputs": [
        {
          "internalType": "uint256[]",
          "name": "",
          "type": "uint256[]"
        }
      ],
      "stateMutability": "view",
      "type": "function"
    }
  ],
  "bytecode": "0x60806040526040518060800160405280600560ff168152602001600660ff168152602001600760ff168152602001600a60ff1681525060059060046200004792919062000252565b503480156200005557600080fd5b5060405162002a1538038062002a1583398181016040528101906200007b91906200077e565b60016000803373ffffffffffffffffffffffffffffffffffffffff1673ffffffffffffffffffffffffffffffffffffffff16815260200190815260200160002060006101000a81548160ff0219169083151502179055508260029080519060200190620000ea929190620002a9565b508160039080519060200190620001039291906200033a565b5060038054905067ffffffffffffffff811115620001265762000125620004af565b5b604051908082528060200260200182016040528015620001555781602001602082028036833780820191505090505b50600490805190602001906200016d929190620003a1565b504260018190555080600760006101000a81548173ffffffffffffffffffffffffffffffffffffffff021916908373ffffffffffffffffffffffffffffffffffffffff160217905550600760009054906101000a900473ffffffffffffffffffffffffffffffffffffffff1673ffffffffffffffffffffffffffffffffffffffff1663fcb0ed0d30336040518363ffffffff1660e01b81526004016200021592919062000829565b600060405180830381600087803b1580156200023057600080fd5b505af115801562000245573d6000803e3d6000fd5b50505050505050620008ba565b82805482825590600052602060002090810192821562000296579160200282015b8281111562000295578251829060ff1690559160200191906001019062000273565b5b509050620002a59190620003f3565b5090565b828054620002b79062000885565b90600052602060002090601f016020900481019282620002db576000855562000327565b82601f10620002f657805160ff191683800117855562000327565b8280016001018555821562000327579182015b828111156200032657825182559160200191906001019062000309565b5b509050620003369190620003f3565b5090565b8280548282559060005260206000209081019282156200038e579160200282015b828111156200038d5782518290805190602001906200037c929190620002a9565b50916020019190600101906200035b565b5b5090506200039d919062000412565b5090565b828054828255906000526020600020908101928215620003e0579160200282015b82811115620003df578251825591602001919060010190620003c2565b5b509050620003ef9190620003f3565b5090565b5b808211156200040e576000816000905550600101620003f4565b5090565b5b808211156200043657600081816200042c91906200043a565b5060010162000413565b5090565b508054620004489062000885565b6000825580601f106200045c57506200047d565b601f0160209004906000526020600020908101906200047c9190620003f3565b5b50565b6000604051905090565b600080fd5b600080fd5b600080fd5b600080fd5b6000601f19601f8301169050919050565b7f4e487b7100000000000000000000000000000000000000000000000000000000600052604160045260246000fd5b620004e9826200049e565b810181811067ffffffffffffffff821117156200050b576200050a620004af565b5b80604052505050565b60006200052062000480565b90506200052e8282620004de565b919050565b600067ffffffffffffffff821115620005515762000550620004af565b5b6200055c826200049e565b9050602081019050919050565b60005b83811015620005895780820151818401526020810190506200056c565b8381111562000599576000848401525b50505050565b6000620005b6620005b08462000533565b62000514565b905082815260208101848484011115620005d557620005d462000499565b5b620005e284828562000569565b509392505050565b600082601f83011262000602576200060162000494565b5b8151620006148482602086016200059f565b91505092915050565b600067ffffffffffffffff8211156200063b576200063a620004af565b5b602082029050602081019050919050565b600080fd5b60006200066862000662846200061d565b62000514565b905080838252602082019050602084028301858111156200068e576200068d6200064c565b5b835b81811015620006dc57805167ffffffffffffffff811115620006b757620006b662000494565b5b808601620006c68982620005ea565b8552602085019450505060208101905062000690565b5050509392505050565b600082601f830112620006fe57620006fd62000494565b5b81516200071084826020860162000651565b91505092915050565b600073ffffffffffffffffffffffffffffffffffffffff82169050919050565b6000620007468262000719565b9050919050565b620007588162000739565b81146200076457600080fd5b50565b60008151905062000778816200074d565b92915050565b6000806000606084860312156200079a57620007996200048a565b5b600084015167ffffffffffffffff811115620007bb57620007ba6200048f565b5b620007c986828701620005ea565b935050602084015167ffffffffffffffff811115620007ed57620007ec6200048f565b5b620007fb86828701620006e6565b92505060406200080e8682870162000767565b9150509250925092565b620008238162000739565b82525050565b600060408201905062000840600083018562000818565b6200084f602083018462000818565b9392505050565b7f4e487b7100000000000000000000000000000000000000000000000000000000600052602260045260246000fd5b600060028204905060018216806200089e57607f821691505b602082108103620008b457620008b362000856565b5b50919050565b61214b80620008ca6000396000f3fe608060405234801561001057600080fd5b50600436106100a95760003560e01c80633bc5de30116100715780633bc5de301461013e578063409e22051461015c5780637065cb481461018c578063d653b09c146101a8578063d850552f146101c4578063d8879a34146101e2576100a9565b80630121b93f146100ae5780630dc96015146100ca578063173825d9146100e85780631865c57d1461010457806320553b3214610122575b600080fd5b6100c860048036038101906100c391906112da565b610212565b005b6100d26106dc565b6040516100df91906113c5565b60405180910390f35b61010260048036038101906100fd9190611445565b610734565b005b61010c6107e3565b604051610119919061148e565b60405180910390f35b61013c60048036038101906101379190611602565b610862565b005b610146610915565b604051610153919061180e565b60405180910390f35b610176600480360381019061017191906112da565b610aaf565b604051610183919061187a565b60405180910390f35b6101a660048036038101906101a19190611445565b610b5b565b005b6101c260048036038101906101bd91906118c8565b610c0a565b005b6101cc610fa1565b6040516101d99190611904565b60405180910390f35b6101fc60048036038101906101f791906119e2565b611010565b6040516102099190611af6565b60405180910390f35b600260038160ff16111580156102615750603c60058260ff168154811061023c5761023b611b18565b5b90600052602060002001546102519190611b76565b60015461025e9190611bd0565b42105b61026a57600080fd5b60038054905082106102b1576040517f08c379a00000000000000000000000000000000000000000000000000000000081526004016102a890611c72565b60405180910390fd5b600760009054906101000a900473ffffffffffffffffffffffffffffffffffffffff1673ffffffffffffffffffffffffffffffffffffffff1663c3c5a547336040518263ffffffff1660e01b815260040161030c9190611ca1565b602060405180830381865afa158015610329573d6000803e3d6000fd5b505050506040513d601f19601f8201168201806040525081019061034d9190611cf4565b61038c576040517f08c379a000000000000000000000000000000000000000000000000000000000815260040161038390611d6d565b60405180910390fd5b6000600660003373ffffffffffffffffffffffffffffffffffffffff1673ffffffffffffffffffffffffffffffffffffffff16815260200190815260200160002060009054906101000a900460ff1660ff161461041e576040517f08c379a000000000000000000000000000000000000000000000000000000000815260040161041590611dd9565b60405180910390fd5b6000600760009054906101000a900473ffffffffffffffffffffffffffffffffffffffff1673ffffffffffffffffffffffffffffffffffffffff1663586ad9fe336040518263ffffffff1660e01b815260040161047b9190611ca1565b602060405180830381865afa158015610498573d6000803e3d6000fd5b505050506040513d601f19601f820116820180604052508101906104bc9190611e0e565b9050603c60056000815481106104d5576104d4611b18565b5b90600052602060002001546104ea9190611b76565b6001546104f79190611bd0565b8110610538576040517f08c379a000000000000000000000000000000000000000000000000000000000815260040161052f90611ead565b60405180910390fd5b6000600760009054906101000a900473ffffffffffffffffffffffffffffffffffffffff1673ffffffffffffffffffffffffffffffffffffffff1663e132b73a336040518263ffffffff1660e01b81526004016105959190611ca1565b602060405180830381865afa1580156105b2573d6000803e3d6000fd5b505050506040513d601f19601f820116820180604052508101906105d69190611ee2565b9050600073ffffffffffffffffffffffffffffffffffffffff168173ffffffffffffffffffffffffffffffffffffffff16146106495760046106178261119f565b8154811061062857610627611b18565b5b90600052602060002001600081548092919061064390611f0f565b91905055505b6001600660003373ffffffffffffffffffffffffffffffffffffffff1673ffffffffffffffffffffffffffffffffffffffff16815260200190815260200160002060006101000a81548160ff021916908360ff160217905550600484815481106106b6576106b5611b18565b5b9060005260206000200160008154809291906106d190611f38565b919050555050505050565b6060600480548060200260200160405190810160405280929190818152602001828054801561072a57602002820191906000526020600020905b815481526020019060010190808311610716575b5050505050905090565b6000803373ffffffffffffffffffffffffffffffffffffffff1673ffffffffffffffffffffffffffffffffffffffff16815260200190815260200160002060009054906101000a900460ff1661078957600080fd5b60016000808373ffffffffffffffffffffffffffffffffffffffff1673ffffffffffffffffffffffffffffffffffffffff16815260200190815260200160002060006101000a81548160ff02191690831515021790555050565b600080600090505b6005805490508160ff16101561085957603c60058260ff168154811061081457610813611b18565b5b90600052602060002001546108299190611b76565b6001546108369190611bd0565b421015610846578091505061085f565b808061085190611f80565b9150506107eb565b50600390505b90565b6000803373ffffffffffffffffffffffffffffffffffffffff1673ffffffffffffffffffffffffffffffffffffffff16815260200190815260200160002060009054906101000a900460ff166108b757600080fd5b60048151146108fb576040517f08c379a00000000000000000000000000000000000000000000000000000000081526004016108f290611ff5565b60405180910390fd5b80600590805190602001906109119291906111fb565b5050565b61091d611248565b60405180608001604052806002805461093590612044565b80601f016020809104026020016040519081016040528092919081815260200182805461096190612044565b80156109ae5780601f10610983576101008083540402835291602001916109ae565b820191906000526020600020905b81548152906001019060200180831161099157829003601f168201915b505050505081526020016003805480602002602001604051908101604052809291908181526020016000905b82821015610a865783829060005260206000200180546109f990612044565b80601f0160208091040260200160405190810160405280929190818152602001828054610a2590612044565b8015610a725780601f10610a4757610100808354040283529160200191610a72565b820191906000526020600020905b815481529060010190602001808311610a5557829003601f168201915b5050505050815260200190600101906109da565b505050508152602001610a976107e3565b60ff168152602001610aa7610fa1565b815250905090565b60038181548110610abf57600080fd5b906000526020600020016000915090508054610ada90612044565b80601f0160208091040260200160405190810160405280929190818152602001828054610b0690612044565b8015610b535780601f10610b2857610100808354040283529160200191610b53565b820191906000526020600020905b815481529060010190602001808311610b3657829003601f168201915b505050505081565b6000803373ffffffffffffffffffffffffffffffffffffffff1673ffffffffffffffffffffffffffffffffffffffff16815260200190815260200160002060009054906101000a900460ff16610bb057600080fd5b60016000808373ffffffffffffffffffffffffffffffffffffffff1673ffffffffffffffffffffffffffffffffffffffff16815260200190815260200160002060006101000a81548160ff02191690831515021790555050565b600160038160ff1611158015610c595750603c60058260ff1681548110610c3457610c33611b18565b5b9060005260206000200154610c499190611b76565b600154610c569190611bd0565b42105b610c6257600080fd5b600760009054906101000a900473ffffffffffffffffffffffffffffffffffffffff1673ffffffffffffffffffffffffffffffffffffffff1663f8b2e512336040518263ffffffff1660e01b8152600401610cbd9190611ca1565b602060405180830381865afa158015610cda573d6000803e3d6000fd5b505050506040513d601f19601f82011682018060405250810190610cfe9190611cf4565b610d3d576040517f08c379a0000000000000000000000000000000000000000000000000000000008152600401610d34906120c1565b60405180910390fd5b6003805490508260ff1610610d87576040517f08c379a0000000000000000000000000000000000000000000000000000000008152600401610d7e90611c72565b60405180910390fd5b6000600660003373ffffffffffffffffffffffffffffffffffffffff1673ffffffffffffffffffffffffffffffffffffffff16815260200190815260200160002060009054906101000a900460ff1660ff1614610e19576040517f08c379a0000000000000000000000000000000000000000000000000000000008152600401610e1090611dd9565b60405180910390fd5b60405180604001604052804281526020018360ff16815250600860003373ffffffffffffffffffffffffffffffffffffffff1673ffffffffffffffffffffffffffffffffffffffff1681526020019081526020016000206000820151816000015560208201518160010160006101000a81548160ff021916908360ff1602179055509050506001600660003373ffffffffffffffffffffffffffffffffffffffff1673ffffffffffffffffffffffffffffffffffffffff16815260200190815260200160002060006101000a81548160ff021916908360ff1602179055503373ffffffffffffffffffffffffffffffffffffffff1663a30e3fa96040518163ffffffff1660e01b8152600401602060405180830381865afa158015610f42573d6000803e3d6000fd5b505050506040513d601f19601f82011682018060405250810190610f669190611e0e565b60048360ff1681548110610f7d57610f7c611b18565b5b906000526020600020016000828254610f969190611bd0565b925050819055505050565b600080610fac6107e3565b60ff16905060038110156110055742603c60058381548110610fd157610fd0611b18565b5b9060005260206000200154610fe69190611b76565b600154610ff39190611bd0565b610ffd91906120e1565b91505061100d565b620f42409150505b90565b60606000825167ffffffffffffffff81111561102f5761102e6114bf565b5b60405190808252806020026020018201604052801561105d5781602001602082028036833780820191505090505b50905060005b83518110156111955760006008600086848151811061108557611084611b18565b5b602002602001015173ffffffffffffffffffffffffffffffffffffffff1673ffffffffffffffffffffffffffffffffffffffff168152602001908152602001600020604051806040016040529081600082015481526020016001820160009054906101000a900460ff1660ff1660ff168152505090506000816000015103611154577fffffffffffffffffffffffffffffffffffffffffffffffffffffffffffffffff83838151811061113b5761113a611b18565b5b602002602001019060000b908160000b81525050611181565b806020015183838151811061116c5761116b611b18565b5b602002602001019060000b908160000b815250505b50808061118d90611f38565b915050611063565b5080915050919050565b6000600860008373ffffffffffffffffffffffffffffffffffffffff1673ffffffffffffffffffffffffffffffffffffffff16815260200190815260200160002060010160009054906101000a900460ff1660ff169050919050565b828054828255906000526020600020908101928215611237579160200282015b8281111561123657825182559160200191906001019061121b565b5b5090506112449190611273565b5090565b60405180608001604052806060815260200160608152602001600060ff168152602001600081525090565b5b8082111561128c576000816000905550600101611274565b5090565b6000604051905090565b600080fd5b600080fd5b6000819050919050565b6112b7816112a4565b81146112c257600080fd5b50565b6000813590506112d4816112ae565b92915050565b6000602082840312156112f0576112ef61129a565b5b60006112fe848285016112c5565b91505092915050565b600081519050919050565b600082825260208201905092915050565b6000819050602082019050919050565b61133c816112a4565b82525050565b600061134e8383611333565b60208301905092915050565b6000602082019050919050565b600061137282611307565b61137c8185611312565b935061138783611323565b8060005b838110156113b857815161139f8882611342565b97506113aa8361135a565b92505060018101905061138b565b5085935050505092915050565b600060208201905081810360008301526113df8184611367565b905092915050565b600073ffffffffffffffffffffffffffffffffffffffff82169050919050565b6000611412826113e7565b9050919050565b61142281611407565b811461142d57600080fd5b50565b60008135905061143f81611419565b92915050565b60006020828403121561145b5761145a61129a565b5b600061146984828501611430565b91505092915050565b600060ff82169050919050565b61148881611472565b82525050565b60006020820190506114a3600083018461147f565b92915050565b600080fd5b6000601f19601f8301169050919050565b7f4e487b7100000000000000000000000000000000000000000000000000000000600052604160045260246000fd5b6114f7826114ae565b810181811067ffffffffffffffff82111715611516576115156114bf565b5b80604052505050565b6000611529611290565b905061153582826114ee565b919050565b600067ffffffffffffffff821115611555576115546114bf565b5b602082029050602081019050919050565b600080fd5b600061157e6115798461153a565b61151f565b905080838252602082019050602084028301858111156115a1576115a0611566565b5b835b818110156115ca57806115b688826112c5565b8452602084019350506020810190506115a3565b5050509392505050565b600082601f8301126115e9576115e86114a9565b5b81356115f984826020860161156b565b91505092915050565b6000602082840312156116185761161761129a565b5b600082013567ffffffffffffffff8111156116365761163561129f565b5b611642848285016115d4565b91505092915050565b600081519050919050565b600082825260208201905092915050565b60005b8381101561168557808201518184015260208101905061166a565b83811115611694576000848401525b50505050565b60006116a58261164b565b6116af8185611656565b93506116bf818560208601611667565b6116c8816114ae565b840191505092915050565b600081519050919050565b600082825260208201905092915050565b6000819050602082019050919050565b600061170b838361169a565b905092915050565b6000602082019050919050565b600061172b826116d3565b61173581856116de565b935083602082028501611747856116ef565b8060005b85811015611783578484038952815161176485826116ff565b945061176f83611713565b925060208a0199505060018101905061174b565b50829750879550505050505092915050565b61179e81611472565b82525050565b600060808301600083015184820360008601526117c1828261169a565b915050602083015184820360208601526117db8282611720565b91505060408301516117f06040860182611795565b5060608301516118036060860182611333565b508091505092915050565b6000602082019050818103600083015261182881846117a4565b905092915050565b600082825260208201905092915050565b600061184c8261164b565b6118568185611830565b9350611866818560208601611667565b61186f816114ae565b840191505092915050565b600060208201905081810360008301526118948184611841565b905092915050565b6118a581611472565b81146118b057600080fd5b50565b6000813590506118c28161189c565b92915050565b6000602082840312156118de576118dd61129a565b5b60006118ec848285016118b3565b91505092915050565b6118fe816112a4565b82525050565b600060208201905061191960008301846118f5565b92915050565b600067ffffffffffffffff82111561193a576119396114bf565b5b602082029050602081019050919050565b600061195e6119598461191f565b61151f565b9050808382526020820190506020840283018581111561198157611980611566565b5b835b818110156119aa57806119968882611430565b845260208401935050602081019050611983565b5050509392505050565b600082601f8301126119c9576119c86114a9565b5b81356119d984826020860161194b565b91505092915050565b6000602082840312156119f8576119f761129a565b5b600082013567ffffffffffffffff811115611a1657611a1561129f565b5b611a22848285016119b4565b91505092915050565b600081519050919050565b600082825260208201905092915050565b6000819050602082019050919050565b60008160000b9050919050565b611a6d81611a57565b82525050565b6000611a7f8383611a64565b60208301905092915050565b6000602082019050919050565b6000611aa382611a2b565b611aad8185611a36565b9350611ab883611a47565b8060005b83811015611ae9578151611ad08882611a73565b9750611adb83611a8b565b925050600181019050611abc565b5085935050505092915050565b60006020820190508181036000830152611b108184611a98565b905092915050565b7f4e487b7100000000000000000000000000000000000000000000000000000000600052603260045260246000fd5b7f4e487b7100000000000000000000000000000000000000000000000000000000600052601160045260246000fd5b6000611b81826112a4565b9150611b8c836112a4565b9250817fffffffffffffffffffffffffffffffffffffffffffffffffffffffffffffffff0483118215151615611bc557611bc4611b47565b5b828202905092915050565b6000611bdb826112a4565b9150611be6836112a4565b9250827fffffffffffffffffffffffffffffffffffffffffffffffffffffffffffffffff03821115611c1b57611c1a611b47565b5b828201905092915050565b7f4f7074696f6e206f7574206f662072616e676500000000000000000000000000600082015250565b6000611c5c601383611830565b9150611c6782611c26565b602082019050919050565b60006020820190508181036000830152611c8b81611c4f565b9050919050565b611c9b81611407565b82525050565b6000602082019050611cb66000830184611c92565b92915050565b60008115159050919050565b611cd181611cbc565b8114611cdc57600080fd5b50565b600081519050611cee81611cc8565b92915050565b600060208284031215611d0a57611d0961129a565b5b6000611d1884828501611cdf565b91505092915050565b7f596f7520617265206e6f74207265676973746572656400000000000000000000600082015250565b6000611d57601683611830565b9150611d6282611d21565b602082019050919050565b60006020820190508181036000830152611d8681611d4a565b9050919050565b7f596f75206861766520616c726561647920766f74656400000000000000000000600082015250565b6000611dc3601683611830565b9150611dce82611d8d565b602082019050919050565b60006020820190508181036000830152611df281611db6565b9050919050565b600081519050611e08816112ae565b92915050565b600060208284031215611e2457611e2361129a565b5b6000611e3284828501611df9565b91505092915050565b7f596f75206368616e67656420796f757220706172747920617420766f74696e6760008201527f2074696d65000000000000000000000000000000000000000000000000000000602082015250565b6000611e97602583611830565b9150611ea282611e3b565b604082019050919050565b60006020820190508181036000830152611ec681611e8a565b9050919050565b600081519050611edc81611419565b92915050565b600060208284031215611ef857611ef761129a565b5b6000611f0684828501611ecd565b91505092915050565b6000611f1a826112a4565b915060008203611f2d57611f2c611b47565b5b600182039050919050565b6000611f43826112a4565b91507fffffffffffffffffffffffffffffffffffffffffffffffffffffffffffffffff8203611f7557611f74611b47565b5b600182019050919050565b6000611f8b82611472565b915060ff8203611f9e57611f9d611b47565b5b600182019050919050565b7f496e76616c6964206e756d626572206f6620706572696f647300000000000000600082015250565b6000611fdf601983611830565b9150611fea82611fa9565b602082019050919050565b6000602082019050818103600083015261200e81611fd2565b9050919050565b7f4e487b7100000000000000000000000000000000000000000000000000000000600052602260045260246000fd5b6000600282049050600182168061205c57607f821691505b60208210810361206f5761206e612015565b5b50919050565b7f496e76616c696420706172747900000000000000000000000000000000000000600082015250565b60006120ab600d83611830565b91506120b682612075565b602082019050919050565b600060208201905081810360008301526120da8161209e565b9050919050565b60006120ec826112a4565b91506120f7836112a4565b92508282101561210a57612109611b47565b5b82820390509291505056fea2646970667358221220abd8a5a0a6d7cdd618db3ad82df13fb980a1215206c27a1c5752155fb672328464736f6c634300080e0033",
  "immutableReferences": {},
  "source": "// SPDX-License-Identifier: UNLICENSED\r\npragma solidity >=0.8.14;\r\n\r\nimport \"./Utils.sol\";\r\nimport \"./Party.sol\";\r\nimport \"./Owned.sol\";\r\n\r\n//import \"./Storage.sol\";\r\n\r\ncontract Ballot is Owned {\r\n    //Attributes\r\n    uint256 creationTimestamp;\r\n    string question;\r\n    string[] public options;\r\n    uint256[] votes;\r\n    uint256[] periods = [5, 6, 7, 10];\r\n\r\n    mapping(address => uint8) hasVoted;\r\n\r\n    Utils utils;\r\n\r\n    //Ballot show\r\n    struct BallotData {\r\n        string question;\r\n        string[] options;\r\n        uint8 state;\r\n        uint256 untilNextState;\r\n    }\r\n\r\n    struct PartyVote {\r\n        uint256 timestamp;\r\n        uint8 option;\r\n    }\r\n\r\n    mapping(address => PartyVote) votedParties;\r\n\r\n    //----------------------STATE LOGIC-----------------------\r\n\r\n    /*\r\n        States:\r\n        0 - Ballot present\r\n        1 - Party voting\r\n        2 - General voting\r\n        3 - Closed\r\n    */\r\n\r\n    modifier inState(uint8 _state) {\r\n        require(\r\n            _state <= 3 &&\r\n                block.timestamp <\r\n                creationTimestamp + (periods[_state] * 1 minutes)\r\n        );\r\n        _;\r\n    }\r\n\r\n    //------------------------MODIFIER------------------------\r\n\r\n    //Modifier check if sender is contract Party\r\n    modifier isParty() {\r\n        require(utils.checkIsParty(msg.sender), \"Invalid party\");\r\n        _;\r\n    }\r\n\r\n    //----------------------CONSTRUCTOR-----------------------\r\n\r\n    constructor(\r\n        string memory _question,\r\n        string[] memory _options,\r\n        address _utils\r\n    ) {\r\n        question = _question;\r\n        options = _options;\r\n        votes = new uint256[](options.length);\r\n        creationTimestamp = block.timestamp;\r\n        utils = Utils(_utils);\r\n        utils.addBallotToMapping(address(this), msg.sender);\r\n    }\r\n\r\n    //-------------------SECURE FUNCTIONS---------------------\r\n\r\n    function vote(uint256 option) public inState(2) {\r\n        require(option < options.length, \"Option out of range\");\r\n        require(utils.isRegistered(msg.sender), \"You are not registered\");\r\n        require(hasVoted[msg.sender] == 0, \"You have already voted\");\r\n\r\n        uint256 partyUpdate = utils.getLastPartyUpdate(msg.sender);\r\n        require(\r\n            partyUpdate < creationTimestamp + (periods[0] * 1 minutes),\r\n            \"You changed your party at voting time\"\r\n        );\r\n\r\n        address party = utils.checkParty(msg.sender);\r\n\r\n        if (party != address(0)) {\r\n            votes[getPartyVote(party)]--;\r\n        }\r\n\r\n        hasVoted[msg.sender] = 1;\r\n        votes[option]++;\r\n    }\r\n\r\n    function partyVote(uint8 option) public inState(1) isParty {\r\n        require(option < options.length, \"Option out of range\");\r\n        require(hasVoted[msg.sender] == 0, \"You have already voted\");\r\n\r\n        votedParties[msg.sender] = PartyVote(block.timestamp, option);\r\n        hasVoted[msg.sender] = 1;\r\n        votes[option] += Party(msg.sender).numberOfMembers();\r\n    }\r\n\r\n    //---------------------PRIVATE FUNCTIONS---------------------\r\n\r\n    function getPartyVote(address party) internal view returns (uint256) {\r\n        return votedParties[party].option;\r\n    }\r\n\r\n    //----------------------PUBLIC FUNCTIONS---------------------\r\n\r\n    function setPeriods(uint256[] memory _periods) public onlyOwner {\r\n        require(_periods.length == 4, \"Invalid number of periods\");\r\n        periods = _periods;\r\n    }\r\n\r\n    function getPartyVotes(address[] memory parties)\r\n        public\r\n        view\r\n        returns (int8[] memory)\r\n    {\r\n        int8[] memory result = new int8[](parties.length);\r\n        for (uint256 i = 0; i < parties.length; i++) {\r\n            PartyVote memory pv = votedParties[parties[i]];\r\n            if (pv.timestamp == 0) {\r\n                result[i] = -1;\r\n            } else {\r\n                result[i] = int8(pv.option);\r\n            }\r\n        }\r\n        return result;\r\n    }\r\n\r\n    function getState() public view returns (uint8) {\r\n        for (uint8 i = 0; i < periods.length; i++) {\r\n            if (\r\n                block.timestamp < creationTimestamp + (periods[i] * 1 minutes)\r\n            ) {\r\n                return i;\r\n            }\r\n        }\r\n        return 3;\r\n    }\r\n\r\n    function untilNextState() public view returns (uint256) {\r\n        uint256 state = getState();\r\n        if (state < 3) {\r\n            return\r\n                creationTimestamp +\r\n                (periods[state] * 1 minutes) -\r\n                block.timestamp;\r\n        } else {\r\n            return 1000000;\r\n        }\r\n    }\r\n\r\n    function getData() public view returns (BallotData memory) {\r\n        return BallotData(question, options, getState(), untilNextState());\r\n    }\r\n\r\n    function getVotes() public view returns (uint256[] memory) {\r\n        return votes;\r\n    }\r\n}\r\n",
  "sourcePath": "C:\\Users\\eduge\\TFG\\Voting-TFG\\contracts\\Ballot.sol",
  "compiler": {
    "name": "solc",
    "version": "0.8.14+commit.80d49f37.Emscripten.clang"
  },
  "schemaVersion": "3.4.9",
  "updatedAt": "2022-09-23T15:23:29.422Z",
  "devdoc": {
    "kind": "dev",
    "methods": {},
    "version": 1
  },
  "userdoc": {
    "kind": "user",
    "methods": {},
    "version": 1
  }
}