{
  "contractName": "VoteFaucet",
  "abi": [
    {
      "inputs": [
        {
          "internalType": "address",
          "name": "_operators",
          "type": "address"
        }
      ],
      "stateMutability": "nonpayable",
      "type": "constructor"
    },
    {
      "inputs": [],
      "name": "rechargeAmount",
      "outputs": [
        {
          "internalType": "uint256",
          "name": "",
          "type": "uint256"
        }
      ],
      "stateMutability": "view",
      "type": "function"
    },
    {
      "inputs": [],
      "name": "rechargeThreshold",
      "outputs": [
        {
          "internalType": "uint256",
          "name": "",
          "type": "uint256"
        }
      ],
      "stateMutability": "view",
      "type": "function"
    },
    {
      "inputs": [],
      "name": "registerAmount",
      "outputs": [
        {
          "internalType": "uint256",
          "name": "",
          "type": "uint256"
        }
      ],
      "stateMutability": "view",
      "type": "function"
    },
    {
      "stateMutability": "payable",
      "type": "receive"
    },
    {
      "inputs": [
        {
          "internalType": "address",
          "name": "_sender",
          "type": "address"
        }
      ],
      "name": "setUtils",
      "outputs": [],
      "stateMutability": "nonpayable",
      "type": "function"
    },
    {
      "inputs": [
        {
          "internalType": "address payable",
          "name": "_address",
          "type": "address"
        }
      ],
      "name": "registerPay",
      "outputs": [],
      "stateMutability": "nonpayable",
      "type": "function"
    },
    {
      "inputs": [
        {
          "internalType": "address payable",
          "name": "_address",
          "type": "address"
        }
      ],
      "name": "recharge",
      "outputs": [],
      "stateMutability": "nonpayable",
      "type": "function"
    },
    {
      "inputs": [],
      "name": "getFaucetBalance",
      "outputs": [
        {
          "internalType": "uint256",
          "name": "",
          "type": "uint256"
        }
      ],
      "stateMutability": "view",
      "type": "function"
    }
  ],
  "bytecode": "0x6080604052600a60005560056001556001600255670de0b6b3a764000060035534801561002b57600080fd5b50604051610bde380380610bde833981810160405281019061004d91906100f7565b80600660006101000a81548173ffffffffffffffffffffffffffffffffffffffff021916908373ffffffffffffffffffffffffffffffffffffffff16021790555050610124565b600080fd5b600073ffffffffffffffffffffffffffffffffffffffff82169050919050565b60006100c482610099565b9050919050565b6100d4816100b9565b81146100df57600080fd5b50565b6000815190506100f1816100cb565b92915050565b60006020828403121561010d5761010c610094565b5b600061011b848285016100e2565b91505092915050565b610aab806101336000396000f3fe6080604052600436106100745760003560e01c8063699535011161004e57806369953501146100ff578063928962f414610128578063a55bb24614610153578063f1f959a61461017c5761007b565b80634f61a12114610080578063511c93f8146100ab5780635d365ce0146100d65761007b565b3661007b57005b600080fd5b34801561008c57600080fd5b506100956101a7565b6040516100a291906105e4565b60405180910390f35b3480156100b757600080fd5b506100c06101ad565b6040516100cd91906105e4565b60405180910390f35b3480156100e257600080fd5b506100fd60048036038101906100f89190610662565b6101b3565b005b34801561010b57600080fd5b50610126600480360381019061012191906106cd565b610332565b005b34801561013457600080fd5b5061013d61041b565b60405161014a91906105e4565b60405180910390f35b34801561015f57600080fd5b5061017a60048036038101906101759190610662565b610421565b005b34801561018857600080fd5b506101916105c3565b60405161019e91906105e4565b60405180910390f35b60025481565b60015481565b6003546000546101c39190610729565b471015610205576040517f08c379a00000000000000000000000000000000000000000000000000000000081526004016101fc906107e0565b60405180910390fd5b3373ffffffffffffffffffffffffffffffffffffffff16600560009054906101000a900473ffffffffffffffffffffffffffffffffffffffff1673ffffffffffffffffffffffffffffffffffffffff1614610295576040517f08c379a000000000000000000000000000000000000000000000000000000000815260040161028c90610872565b60405180910390fd5b8073ffffffffffffffffffffffffffffffffffffffff166108fc6003546000546102bf9190610729565b9081150290604051600060405180830381858888f193505050501580156102ea573d6000803e3d6000fd5b5042600460008373ffffffffffffffffffffffffffffffffffffffff1673ffffffffffffffffffffffffffffffffffffffff1681526020019081526020016000208190555050565b600660009054906101000a900473ffffffffffffffffffffffffffffffffffffffff1673ffffffffffffffffffffffffffffffffffffffff16632f54bf6e826040518263ffffffff1660e01b815260040161038d91906108a1565b602060405180830381865afa1580156103aa573d6000803e3d6000fd5b505050506040513d601f19601f820116820180604052508101906103ce91906108f4565b6103d757600080fd5b33600560006101000a81548173ffffffffffffffffffffffffffffffffffffffff021916908373ffffffffffffffffffffffffffffffffffffffff16021790555050565b60005481565b6003546000546104319190610729565b471015610473576040517f08c379a000000000000000000000000000000000000000000000000000000000815260040161046a906107e0565b60405180910390fd5b4262015180600460008473ffffffffffffffffffffffffffffffffffffffff1673ffffffffffffffffffffffffffffffffffffffff168152602001908152602001600020546104c29190610921565b10610502576040517f08c379a00000000000000000000000000000000000000000000000000000000081526004016104f9906109e9565b60405180910390fd5b6003546002546105129190610729565b8173ffffffffffffffffffffffffffffffffffffffff16311061056a576040517f08c379a000000000000000000000000000000000000000000000000000000000815260040161056190610a55565b60405180910390fd5b8073ffffffffffffffffffffffffffffffffffffffff166108fc6003546001546105949190610729565b9081150290604051600060405180830381858888f193505050501580156105bf573d6000803e3d6000fd5b5050565b600047905090565b6000819050919050565b6105de816105cb565b82525050565b60006020820190506105f960008301846105d5565b92915050565b600080fd5b600073ffffffffffffffffffffffffffffffffffffffff82169050919050565b600061062f82610604565b9050919050565b61063f81610624565b811461064a57600080fd5b50565b60008135905061065c81610636565b92915050565b600060208284031215610678576106776105ff565b5b60006106868482850161064d565b91505092915050565b600061069a82610604565b9050919050565b6106aa8161068f565b81146106b557600080fd5b50565b6000813590506106c7816106a1565b92915050565b6000602082840312156106e3576106e26105ff565b5b60006106f1848285016106b8565b91505092915050565b7f4e487b7100000000000000000000000000000000000000000000000000000000600052601160045260246000fd5b6000610734826105cb565b915061073f836105cb565b9250817fffffffffffffffffffffffffffffffffffffffffffffffffffffffffffffffff0483118215151615610778576107776106fa565b5b828202905092915050565b600082825260208201905092915050565b7f4e6f7420656e6f7567682062616c616e63650000000000000000000000000000600082015250565b60006107ca601283610783565b91506107d582610794565b602082019050919050565b600060208201905081810360008301526107f9816107bd565b9050919050565b7f4f6e6c79207574696c7320636f6e74726163742063616e2063616c6c2074686960008201527f732066756e6374696f6e00000000000000000000000000000000000000000000602082015250565b600061085c602a83610783565b915061086782610800565b604082019050919050565b6000602082019050818103600083015261088b8161084f565b9050919050565b61089b8161068f565b82525050565b60006020820190506108b66000830184610892565b92915050565b60008115159050919050565b6108d1816108bc565b81146108dc57600080fd5b50565b6000815190506108ee816108c8565b92915050565b60006020828403121561090a576109096105ff565b5b6000610918848285016108df565b91505092915050565b600061092c826105cb565b9150610937836105cb565b9250827fffffffffffffffffffffffffffffffffffffffffffffffffffffffffffffffff0382111561096c5761096b6106fa565b5b828201905092915050565b7f596f752063616e206f6e6c79207265636861726765206f6e636520706572206460008201527f6179000000000000000000000000000000000000000000000000000000000000602082015250565b60006109d3602283610783565b91506109de82610977565b604082019050919050565b60006020820190508181036000830152610a02816109c6565b9050919050565b7f596f75206d7573742068617665206c657373207468616e203120564f54450000600082015250565b6000610a3f601e83610783565b9150610a4a82610a09565b602082019050919050565b60006020820190508181036000830152610a6e81610a32565b905091905056fea26469706673582212204c670164dec22d233cfdb43c7eb80a8633bf274b4b732aa4193cb9d586977b7764736f6c634300080e0033",
  "immutableReferences": {},
  "source": "// SPDX-License-Identifier: UNLICENSED\r\npragma solidity >=0.8.14;\r\n\r\nimport \"./Utils.sol\";\r\nimport \"./Operators.sol\";\r\n\r\ncontract VoteFaucet {\r\n    uint256 public registerAmount = 10;\r\n    uint256 public rechargeAmount = 5;\r\n    uint256 public rechargeThreshold = 1;\r\n    uint256 private multiplier = 1000000000000000000;\r\n\r\n    mapping(address => uint256) private lastTransfer;\r\n\r\n    Utils utils;\r\n    Operators operators;\r\n\r\n    modifier enoughBalance() {\r\n        require(\r\n            address(this).balance >= registerAmount * multiplier,\r\n            \"Not enough balance\"\r\n        );\r\n        _;\r\n    }\r\n\r\n    constructor(address _operators) {\r\n        operators = Operators(_operators);\r\n    }\r\n\r\n    function setUtils(address _sender) public {\r\n        require(operators.isOwner(_sender));\r\n        utils = Utils(msg.sender);\r\n    }\r\n\r\n    function registerPay(address payable _address) public enoughBalance {\r\n        require(\r\n            address(utils) == msg.sender,\r\n            \"Only utils contract can call this function\"\r\n        );\r\n        _address.transfer(registerAmount * multiplier);\r\n        lastTransfer[_address] = block.timestamp;\r\n    }\r\n\r\n    function recharge(address payable _address) public enoughBalance {\r\n        require(\r\n            lastTransfer[_address] + 1 days < block.timestamp,\r\n            \"You can only recharge once per day\"\r\n        );\r\n        require(\r\n            _address.balance < rechargeThreshold * multiplier,\r\n            \"You must have less than 1 VOTE\"\r\n        );\r\n        _address.transfer(rechargeAmount * multiplier);\r\n    }\r\n\r\n    function getFaucetBalance() public view returns (uint256) {\r\n        return address(this).balance;\r\n    }\r\n\r\n    receive() external payable {}\r\n}\r\n",
  "sourcePath": "C:\\Users\\eduge\\TFG\\Voting-TFG\\contracts\\VoteFaucet.sol",
  "compiler": {
    "name": "solc",
    "version": "0.8.14+commit.80d49f37.Emscripten.clang"
  },
  "schemaVersion": "3.4.9",
  "updatedAt": "2022-09-23T15:23:29.461Z",
  "devdoc": {
    "kind": "dev",
    "methods": {},
    "version": 1
  },
  "userdoc": {
    "kind": "user",
    "methods": {},
    "version": 1
  },
  "address": "0xa51D35bBF4c692338C4a7E78cae1ddDa773FD82d"
}