{
  "contractName": "Owned",
  "abi": [
    {
      "inputs": [],
      "stateMutability": "nonpayable",
      "type": "constructor"
    },
    {
      "inputs": [
        {
          "internalType": "address",
          "name": "_addr",
          "type": "address"
        }
      ],
      "name": "addOwner",
      "outputs": [],
      "stateMutability": "nonpayable",
      "type": "function"
    },
    {
      "inputs": [
        {
          "internalType": "address",
          "name": "_addr",
          "type": "address"
        }
      ],
      "name": "removeOwner",
      "outputs": [],
      "stateMutability": "nonpayable",
      "type": "function"
    }
  ],
  "bytecode": "0x608060405234801561001057600080fd5b5060016000803373ffffffffffffffffffffffffffffffffffffffff1673ffffffffffffffffffffffffffffffffffffffff16815260200190815260200160002060006101000a81548160ff021916908315150217905550610297806100776000396000f3fe608060405234801561001057600080fd5b50600436106100365760003560e01c8063173825d91461003b5780637065cb4814610057575b600080fd5b61005560048036038101906100509190610234565b610073565b005b610071600480360381019061006c9190610234565b610122565b005b6000803373ffffffffffffffffffffffffffffffffffffffff1673ffffffffffffffffffffffffffffffffffffffff16815260200190815260200160002060009054906101000a900460ff166100c857600080fd5b60016000808373ffffffffffffffffffffffffffffffffffffffff1673ffffffffffffffffffffffffffffffffffffffff16815260200190815260200160002060006101000a81548160ff02191690831515021790555050565b6000803373ffffffffffffffffffffffffffffffffffffffff1673ffffffffffffffffffffffffffffffffffffffff16815260200190815260200160002060009054906101000a900460ff1661017757600080fd5b60016000808373ffffffffffffffffffffffffffffffffffffffff1673ffffffffffffffffffffffffffffffffffffffff16815260200190815260200160002060006101000a81548160ff02191690831515021790555050565b600080fd5b600073ffffffffffffffffffffffffffffffffffffffff82169050919050565b6000610201826101d6565b9050919050565b610211816101f6565b811461021c57600080fd5b50565b60008135905061022e81610208565b92915050565b60006020828403121561024a576102496101d1565b5b60006102588482850161021f565b9150509291505056fea2646970667358221220ec9822363f2cacdcf02e899d588835e55fea89733cb7b13be4807a95ae6862d464736f6c634300080e0033",
  "immutableReferences": {},
  "source": "// SPDX-License-Identifier: UNLICENSED\r\npragma solidity >=0.8.14;\r\n\r\ncontract Owned {\r\n    mapping(address => bool) internal owned;\r\n\r\n    constructor() {\r\n        owned[msg.sender] = true;\r\n    }\r\n\r\n    modifier onlyOwner() {\r\n        require(owned[msg.sender]);\r\n        _;\r\n    }\r\n\r\n    function addOwner(address _addr) public virtual onlyOwner {\r\n        owned[_addr] = true;\r\n    }\r\n\r\n    function removeOwner(address _addr) public virtual onlyOwner {\r\n        owned[_addr] = true;\r\n    }\r\n}\r\n",
  "sourcePath": "C:\\Users\\eduge\\TFG\\Voting-TFG\\contracts\\Owned.sol",
  "compiler": {
    "name": "solc",
    "version": "0.8.14+commit.80d49f37.Emscripten.clang"
  },
  "schemaVersion": "3.4.9",
  "updatedAt": "2022-09-14T12:17:30.913Z",
  "devdoc": {
    "kind": "dev",
    "methods": {},
    "version": 1
  },
  "userdoc": {
    "kind": "user",
    "methods": {},
    "version": 1
  }
}