{
  "contractName": "Party",
  "abi": [
    {
      "inputs": [
        {
          "internalType": "address",
          "name": "_utils",
          "type": "address"
        },
        {
          "internalType": "string",
          "name": "_name",
          "type": "string"
        },
        {
          "internalType": "string",
          "name": "_description",
          "type": "string"
        }
      ],
      "stateMutability": "nonpayable",
      "type": "constructor"
    },
    {
      "inputs": [],
      "name": "description",
      "outputs": [
        {
          "internalType": "string",
          "name": "",
          "type": "string"
        }
      ],
      "stateMutability": "view",
      "type": "function"
    },
    {
      "inputs": [],
      "name": "electoralProgram",
      "outputs": [
        {
          "internalType": "string",
          "name": "",
          "type": "string"
        }
      ],
      "stateMutability": "view",
      "type": "function"
    },
    {
      "inputs": [],
      "name": "email",
      "outputs": [
        {
          "internalType": "string",
          "name": "",
          "type": "string"
        }
      ],
      "stateMutability": "view",
      "type": "function"
    },
    {
      "inputs": [],
      "name": "image",
      "outputs": [
        {
          "internalType": "string",
          "name": "",
          "type": "string"
        }
      ],
      "stateMutability": "view",
      "type": "function"
    },
    {
      "inputs": [],
      "name": "name",
      "outputs": [
        {
          "internalType": "string",
          "name": "",
          "type": "string"
        }
      ],
      "stateMutability": "view",
      "type": "function"
    },
    {
      "inputs": [],
      "name": "numberOfMembers",
      "outputs": [
        {
          "internalType": "uint256",
          "name": "",
          "type": "uint256"
        }
      ],
      "stateMutability": "view",
      "type": "function"
    },
    {
      "inputs": [],
      "name": "website",
      "outputs": [
        {
          "internalType": "string",
          "name": "",
          "type": "string"
        }
      ],
      "stateMutability": "view",
      "type": "function"
    },
    {
      "inputs": [
        {
          "internalType": "address",
          "name": "_addr",
          "type": "address"
        }
      ],
      "name": "addOwner",
      "outputs": [],
      "stateMutability": "nonpayable",
      "type": "function"
    },
    {
      "inputs": [
        {
          "internalType": "address",
          "name": "_addr",
          "type": "address"
        }
      ],
      "name": "removeOwner",
      "outputs": [],
      "stateMutability": "nonpayable",
      "type": "function"
    },
    {
      "inputs": [
        {
          "internalType": "address",
          "name": "ballot",
          "type": "address"
        },
        {
          "internalType": "uint8",
          "name": "option",
          "type": "uint8"
        }
      ],
      "name": "partyVote",
      "outputs": [],
      "stateMutability": "nonpayable",
      "type": "function"
    },
    {
      "inputs": [
        {
          "internalType": "string[]",
          "name": "_fields",
          "type": "string[]"
        },
        {
          "internalType": "uint8[]",
          "name": "ids",
          "type": "uint8[]"
        }
      ],
      "name": "set",
      "outputs": [],
      "stateMutability": "nonpayable",
      "type": "function"
    },
    {
      "inputs": [],
      "name": "imOwner",
      "outputs": [
        {
          "internalType": "bool",
          "name": "",
          "type": "bool"
        }
      ],
      "stateMutability": "view",
      "type": "function"
    },
    {
      "inputs": [],
      "name": "increaseMembers",
      "outputs": [],
      "stateMutability": "nonpayable",
      "type": "function"
    },
    {
      "inputs": [],
      "name": "decreaseMembers",
      "outputs": [],
      "stateMutability": "nonpayable",
      "type": "function"
    }
  ],
  "bytecode": "0x60806040523480156200001157600080fd5b5060405162001ca238038062001ca28339818101604052810190620000379190620004e0565b60016000803373ffffffffffffffffffffffffffffffffffffffff1673ffffffffffffffffffffffffffffffffffffffff16815260200190815260200160002060006101000a81548160ff0219169083151502179055508160019080519060200190620000a69291906200022e565b508060029080519060200190620000bf9291906200022e565b5082600860006101000a81548173ffffffffffffffffffffffffffffffffffffffff021916908373ffffffffffffffffffffffffffffffffffffffff160217905550600860009054906101000a900473ffffffffffffffffffffffffffffffffffffffff1673ffffffffffffffffffffffffffffffffffffffff1663ebd9955030336040518363ffffffff1660e01b8152600401620001609291906200058b565b600060405180830381600087803b1580156200017b57600080fd5b505af115801562000190573d6000803e3d6000fd5b50505050600860009054906101000a900473ffffffffffffffffffffffffffffffffffffffff1673ffffffffffffffffffffffffffffffffffffffff1663f6cfac22336040518263ffffffff1660e01b8152600401620001f19190620005b8565b600060405180830381600087803b1580156200020c57600080fd5b505af115801562000221573d6000803e3d6000fd5b5050505050505062000639565b8280546200023c9062000604565b90600052602060002090601f016020900481019282620002605760008555620002ac565b82601f106200027b57805160ff1916838001178555620002ac565b82800160010185558215620002ac579182015b82811115620002ab5782518255916020019190600101906200028e565b5b509050620002bb9190620002bf565b5090565b5b80821115620002da576000816000905550600101620002c0565b5090565b6000604051905090565b600080fd5b600080fd5b600073ffffffffffffffffffffffffffffffffffffffff82169050919050565b60006200031f82620002f2565b9050919050565b620003318162000312565b81146200033d57600080fd5b50565b600081519050620003518162000326565b92915050565b600080fd5b600080fd5b6000601f19601f8301169050919050565b7f4e487b7100000000000000000000000000000000000000000000000000000000600052604160045260246000fd5b620003ac8262000361565b810181811067ffffffffffffffff82111715620003ce57620003cd62000372565b5b80604052505050565b6000620003e3620002de565b9050620003f18282620003a1565b919050565b600067ffffffffffffffff82111562000414576200041362000372565b5b6200041f8262000361565b9050602081019050919050565b60005b838110156200044c5780820151818401526020810190506200042f565b838111156200045c576000848401525b50505050565b6000620004796200047384620003f6565b620003d7565b9050828152602081018484840111156200049857620004976200035c565b5b620004a58482856200042c565b509392505050565b600082601f830112620004c557620004c462000357565b5b8151620004d784826020860162000462565b91505092915050565b600080600060608486031215620004fc57620004fb620002e8565b5b60006200050c8682870162000340565b935050602084015167ffffffffffffffff81111562000530576200052f620002ed565b5b6200053e86828701620004ad565b925050604084015167ffffffffffffffff811115620005625762000561620002ed565b5b6200057086828701620004ad565b9150509250925092565b620005858162000312565b82525050565b6000604082019050620005a260008301856200057a565b620005b160208301846200057a565b9392505050565b6000602082019050620005cf60008301846200057a565b92915050565b7f4e487b7100000000000000000000000000000000000000000000000000000000600052602260045260246000fd5b600060028204905060018216806200061d57607f821691505b602082108103620006335762000632620005d5565b5b50919050565b61165980620006496000396000f3fe608060405234801561001057600080fd5b50600436106100ea5760003560e01c80638b214d5d1161008c578063d4a3096e11610066578063d4a3096e14610201578063d95208b11461021d578063f3ccaac01461023b578063f7b85eb314610259576100ea565b80638b214d5d146101a7578063a30e3fa9146101c5578063beb0a416146101e3576100ea565b80636e9d00f2116100c85780636e9d00f2146101335780637065cb481461014f5780637284e4161461016b578063820e93f514610189576100ea565b806306fdde03146100ef578063173825d91461010d5780635b13849714610129575b600080fd5b6100f7610263565b6040516101049190610f7d565b60405180910390f35b61012760048036038101906101229190611011565b6102f1565b005b6101316103df565b005b61014d60048036038101906101489190611355565b610453565b005b61016960048036038101906101649190611011565b610716565b005b610173610804565b6040516101809190610f7d565b60405180910390f35b610191610892565b60405161019e9190610f7d565b60405180910390f35b6101af610920565b6040516101bc91906113e8565b60405180910390f35b6101cd610973565b6040516101da919061141c565b60405180910390f35b6101eb610979565b6040516101f89190610f7d565b60405180910390f35b61021b60048036038101906102169190611437565b610a07565b005b610225610b53565b6040516102329190610f7d565b60405180910390f35b610243610be1565b6040516102509190610f7d565b60405180910390f35b610261610c6f565b005b60018054610270906114a6565b80601f016020809104026020016040519081016040528092919081815260200182805461029c906114a6565b80156102e95780601f106102be576101008083540402835291602001916102e9565b820191906000526020600020905b8154815290600101906020018083116102cc57829003601f168201915b505050505081565b6000803373ffffffffffffffffffffffffffffffffffffffff1673ffffffffffffffffffffffffffffffffffffffff16815260200190815260200160002060009054906101000a900460ff1661034657600080fd5b61034f81610ce3565b600860009054906101000a900473ffffffffffffffffffffffffffffffffffffffff1673ffffffffffffffffffffffffffffffffffffffff16635c253c8f826040518263ffffffff1660e01b81526004016103aa91906114e6565b600060405180830381600087803b1580156103c457600080fd5b505af11580156103d8573d6000803e3d6000fd5b5050505050565b3373ffffffffffffffffffffffffffffffffffffffff16600860009054906101000a900473ffffffffffffffffffffffffffffffffffffffff1673ffffffffffffffffffffffffffffffffffffffff161461043957600080fd5b6007600081548092919061044c90611530565b9190505550565b6000803373ffffffffffffffffffffffffffffffffffffffff1673ffffffffffffffffffffffffffffffffffffffff16815260200190815260200160002060009054906101000a900460ff166104a857600080fd5b60005b82518160ff161015610711576000828260ff16815181106104cf576104ce611559565b5b602002602001015160ff160361051857828160ff16815181106104f5576104f4611559565b5b602002602001015160019080519060200190610512929190610e41565b506106fe565b6001828260ff16815181106105305761052f611559565b5b602002602001015160ff160361057957828160ff168151811061055657610555611559565b5b602002602001015160029080519060200190610573929190610e41565b506106fd565b6002828260ff168151811061059157610590611559565b5b602002602001015160ff16036105da57828160ff16815181106105b7576105b6611559565b5b6020026020010151600390805190602001906105d4929190610e41565b506106fc565b6003828260ff16815181106105f2576105f1611559565b5b602002602001015160ff160361063b57828160ff168151811061061857610617611559565b5b602002602001015160049080519060200190610635929190610e41565b506106fb565b6004828260ff168151811061065357610652611559565b5b602002602001015160ff160361069c57828160ff168151811061067957610678611559565b5b602002602001015160059080519060200190610696929190610e41565b506106fa565b6005828260ff16815181106106b4576106b3611559565b5b602002602001015160ff16036106f957828160ff16815181106106da576106d9611559565b5b6020026020010151600690805190602001906106f7929190610e41565b505b5b5b5b5b5b808061070990611588565b9150506104ab565b505050565b6000803373ffffffffffffffffffffffffffffffffffffffff1673ffffffffffffffffffffffffffffffffffffffff16815260200190815260200160002060009054906101000a900460ff1661076b57600080fd5b61077481610d92565b600860009054906101000a900473ffffffffffffffffffffffffffffffffffffffff1673ffffffffffffffffffffffffffffffffffffffff1663f6cfac22826040518263ffffffff1660e01b81526004016107cf91906114e6565b600060405180830381600087803b1580156107e957600080fd5b505af11580156107fd573d6000803e3d6000fd5b5050505050565b60028054610811906114a6565b80601f016020809104026020016040519081016040528092919081815260200182805461083d906114a6565b801561088a5780601f1061085f5761010080835404028352916020019161088a565b820191906000526020600020905b81548152906001019060200180831161086d57829003601f168201915b505050505081565b6005805461089f906114a6565b80601f01602080910402602001604051908101604052809291908181526020018280546108cb906114a6565b80156109185780601f106108ed57610100808354040283529160200191610918565b820191906000526020600020905b8154815290600101906020018083116108fb57829003601f168201915b505050505081565b60008060003373ffffffffffffffffffffffffffffffffffffffff1673ffffffffffffffffffffffffffffffffffffffff16815260200190815260200160002060009054906101000a900460ff16905090565b60075481565b60048054610986906114a6565b80601f01602080910402602001604051908101604052809291908181526020018280546109b2906114a6565b80156109ff5780601f106109d4576101008083540402835291602001916109ff565b820191906000526020600020905b8154815290600101906020018083116109e257829003601f168201915b505050505081565b6000803373ffffffffffffffffffffffffffffffffffffffff1673ffffffffffffffffffffffffffffffffffffffff16815260200190815260200160002060009054906101000a900460ff16610a5c57600080fd5b60008290508073ffffffffffffffffffffffffffffffffffffffff1663d653b09c836040518263ffffffff1660e01b8152600401610a9a91906115c0565b600060405180830381600087803b158015610ab457600080fd5b505af1158015610ac8573d6000803e3d6000fd5b50505050600860009054906101000a900473ffffffffffffffffffffffffffffffffffffffff1673ffffffffffffffffffffffffffffffffffffffff16631bff4a946040518163ffffffff1660e01b8152600401600060405180830381600087803b158015610b3657600080fd5b505af1158015610b4a573d6000803e3d6000fd5b50505050505050565b60068054610b60906114a6565b80601f0160208091040260200160405190810160405280929190818152602001828054610b8c906114a6565b8015610bd95780601f10610bae57610100808354040283529160200191610bd9565b820191906000526020600020905b815481529060010190602001808311610bbc57829003601f168201915b505050505081565b60038054610bee906114a6565b80601f0160208091040260200160405190810160405280929190818152602001828054610c1a906114a6565b8015610c675780601f10610c3c57610100808354040283529160200191610c67565b820191906000526020600020905b815481529060010190602001808311610c4a57829003601f168201915b505050505081565b3373ffffffffffffffffffffffffffffffffffffffff16600860009054906101000a900473ffffffffffffffffffffffffffffffffffffffff1673ffffffffffffffffffffffffffffffffffffffff1614610cc957600080fd5b60076000815480929190610cdc906115db565b9190505550565b6000803373ffffffffffffffffffffffffffffffffffffffff1673ffffffffffffffffffffffffffffffffffffffff16815260200190815260200160002060009054906101000a900460ff16610d3857600080fd5b60016000808373ffffffffffffffffffffffffffffffffffffffff1673ffffffffffffffffffffffffffffffffffffffff16815260200190815260200160002060006101000a81548160ff02191690831515021790555050565b6000803373ffffffffffffffffffffffffffffffffffffffff1673ffffffffffffffffffffffffffffffffffffffff16815260200190815260200160002060009054906101000a900460ff16610de757600080fd5b60016000808373ffffffffffffffffffffffffffffffffffffffff1673ffffffffffffffffffffffffffffffffffffffff16815260200190815260200160002060006101000a81548160ff02191690831515021790555050565b828054610e4d906114a6565b90600052602060002090601f016020900481019282610e6f5760008555610eb6565b82601f10610e8857805160ff1916838001178555610eb6565b82800160010185558215610eb6579182015b82811115610eb5578251825591602001919060010190610e9a565b5b509050610ec39190610ec7565b5090565b5b80821115610ee0576000816000905550600101610ec8565b5090565b600081519050919050565b600082825260208201905092915050565b60005b83811015610f1e578082015181840152602081019050610f03565b83811115610f2d576000848401525b50505050565b6000601f19601f8301169050919050565b6000610f4f82610ee4565b610f598185610eef565b9350610f69818560208601610f00565b610f7281610f33565b840191505092915050565b60006020820190508181036000830152610f978184610f44565b905092915050565b6000604051905090565b600080fd5b600080fd5b600073ffffffffffffffffffffffffffffffffffffffff82169050919050565b6000610fde82610fb3565b9050919050565b610fee81610fd3565b8114610ff957600080fd5b50565b60008135905061100b81610fe5565b92915050565b60006020828403121561102757611026610fa9565b5b600061103584828501610ffc565b91505092915050565b600080fd5b7f4e487b7100000000000000000000000000000000000000000000000000000000600052604160045260246000fd5b61107b82610f33565b810181811067ffffffffffffffff8211171561109a57611099611043565b5b80604052505050565b60006110ad610f9f565b90506110b98282611072565b919050565b600067ffffffffffffffff8211156110d9576110d8611043565b5b602082029050602081019050919050565b600080fd5b600080fd5b600067ffffffffffffffff82111561110f5761110e611043565b5b61111882610f33565b9050602081019050919050565b82818337600083830152505050565b6000611147611142846110f4565b6110a3565b905082815260208101848484011115611163576111626110ef565b5b61116e848285611125565b509392505050565b600082601f83011261118b5761118a61103e565b5b813561119b848260208601611134565b91505092915050565b60006111b76111b2846110be565b6110a3565b905080838252602082019050602084028301858111156111da576111d96110ea565b5b835b8181101561122157803567ffffffffffffffff8111156111ff576111fe61103e565b5b80860161120c8982611176565b855260208501945050506020810190506111dc565b5050509392505050565b600082601f8301126112405761123f61103e565b5b81356112508482602086016111a4565b91505092915050565b600067ffffffffffffffff82111561127457611273611043565b5b602082029050602081019050919050565b600060ff82169050919050565b61129b81611285565b81146112a657600080fd5b50565b6000813590506112b881611292565b92915050565b60006112d16112cc84611259565b6110a3565b905080838252602082019050602084028301858111156112f4576112f36110ea565b5b835b8181101561131d578061130988826112a9565b8452602084019350506020810190506112f6565b5050509392505050565b600082601f83011261133c5761133b61103e565b5b813561134c8482602086016112be565b91505092915050565b6000806040838503121561136c5761136b610fa9565b5b600083013567ffffffffffffffff81111561138a57611389610fae565b5b6113968582860161122b565b925050602083013567ffffffffffffffff8111156113b7576113b6610fae565b5b6113c385828601611327565b9150509250929050565b60008115159050919050565b6113e2816113cd565b82525050565b60006020820190506113fd60008301846113d9565b92915050565b6000819050919050565b61141681611403565b82525050565b6000602082019050611431600083018461140d565b92915050565b6000806040838503121561144e5761144d610fa9565b5b600061145c85828601610ffc565b925050602061146d858286016112a9565b9150509250929050565b7f4e487b7100000000000000000000000000000000000000000000000000000000600052602260045260246000fd5b600060028204905060018216806114be57607f821691505b6020821081036114d1576114d0611477565b5b50919050565b6114e081610fd3565b82525050565b60006020820190506114fb60008301846114d7565b92915050565b7f4e487b7100000000000000000000000000000000000000000000000000000000600052601160045260246000fd5b600061153b82611403565b91506000820361154e5761154d611501565b5b600182039050919050565b7f4e487b7100000000000000000000000000000000000000000000000000000000600052603260045260246000fd5b600061159382611285565b915060ff82036115a6576115a5611501565b5b600182019050919050565b6115ba81611285565b82525050565b60006020820190506115d560008301846115b1565b92915050565b60006115e682611403565b91507fffffffffffffffffffffffffffffffffffffffffffffffffffffffffffffffff820361161857611617611501565b5b60018201905091905056fea2646970667358221220d82cbeb3c39aa4a6d3519c2371db2931f08165e0986fd76da9365a71c9a3032c64736f6c634300080e0033",
  "immutableReferences": {},
  "source": "// SPDX-License-Identifier: UNLICENSED\r\npragma solidity >=0.8.14;\r\n\r\nimport \"./Ballot.sol\";\r\nimport \"./Utils.sol\";\r\nimport \"./Owned.sol\";\r\n\r\ncontract Party is Owned {\r\n    //Party attributes\r\n    string public name;\r\n    string public description;\r\n    string public image;\r\n    string public website;\r\n    string public email;\r\n    string public electoralProgram;\r\n    uint256 public numberOfMembers;\r\n\r\n    Utils utils;\r\n\r\n    modifier isUtils() {\r\n        require(address(utils) == msg.sender);\r\n        _;\r\n    }\r\n\r\n    modifier isBallot() {\r\n        require(utils.checkIsBallot(msg.sender), \"Invalid ballot\");\r\n        _;\r\n    }\r\n\r\n    constructor(\r\n        address _utils,\r\n        string memory _name,\r\n        string memory _description\r\n    ) {\r\n        name = _name;\r\n        description = _description;\r\n        utils = Utils(_utils);\r\n        utils.addPartyToMapping(address(this), msg.sender);\r\n        utils.addPartyToUser(msg.sender);\r\n    }\r\n\r\n    function addOwner(address _addr) public override onlyOwner {\r\n        super.addOwner(_addr);\r\n        utils.addPartyToUser(_addr);\r\n    }\r\n\r\n    function removeOwner(address _addr) public override onlyOwner {\r\n        super.removeOwner(_addr);\r\n        utils.removePartyFromUser(_addr);\r\n    }\r\n\r\n    function partyVote(address ballot, uint8 option) public onlyOwner {\r\n        Ballot b = Ballot(ballot);\r\n        b.partyVote(option);\r\n        utils.setLastVote();\r\n    }\r\n\r\n    function set(string[] memory _fields, uint8[] memory ids) public onlyOwner {\r\n        for (uint8 i = 0; i < _fields.length; i++) {\r\n            if (ids[i] == 0) {\r\n                name = _fields[i];\r\n            } else if (ids[i] == 1) {\r\n                description = _fields[i];\r\n            } else if (ids[i] == 2) {\r\n                image = _fields[i];\r\n            } else if (ids[i] == 3) {\r\n                website = _fields[i];\r\n            } else if (ids[i] == 4) {\r\n                email = _fields[i];\r\n            } else if (ids[i] == 5) {\r\n                electoralProgram = _fields[i];\r\n            }\r\n        }\r\n    }\r\n\r\n    function imOwner() public view returns (bool) {\r\n        return owned[msg.sender];\r\n    }\r\n\r\n    //Setters\r\n    function increaseMembers() public isUtils {\r\n        numberOfMembers++;\r\n    }\r\n\r\n    function decreaseMembers() public isUtils {\r\n        numberOfMembers--;\r\n    }\r\n}\r\n",
  "sourcePath": "C:\\Users\\eduge\\TFG\\Voting-TFG\\contracts\\Party.sol",
  "compiler": {
    "name": "solc",
    "version": "0.8.14+commit.80d49f37.Emscripten.clang"
  },
  "schemaVersion": "3.4.9",
  "updatedAt": "2022-09-23T15:23:29.444Z",
  "devdoc": {
    "kind": "dev",
    "methods": {},
    "version": 1
  },
  "userdoc": {
    "kind": "user",
    "methods": {},
    "version": 1
  }
}