{
  "contractName": "Utils",
  "abi": [
    {
      "inputs": [
        {
          "internalType": "address payable",
          "name": "_voteFaucet",
          "type": "address"
        },
        {
          "internalType": "address",
          "name": "_operators",
          "type": "address"
        }
      ],
      "stateMutability": "nonpayable",
      "type": "constructor"
    },
    {
      "inputs": [
        {
          "internalType": "uint8",
          "name": "v",
          "type": "uint8"
        },
        {
          "internalType": "bytes32",
          "name": "r",
          "type": "bytes32"
        },
        {
          "internalType": "bytes32",
          "name": "s",
          "type": "bytes32"
        },
        {
          "internalType": "address payable",
          "name": "sender",
          "type": "address"
        },
        {
          "internalType": "uint32",
          "name": "dni",
          "type": "uint32"
        }
      ],
      "name": "secureRegister",
      "outputs": [],
      "stateMutability": "nonpayable",
      "type": "function"
    },
    {
      "inputs": [
        {
          "internalType": "address",
          "name": "_newParty",
          "type": "address"
        }
      ],
      "name": "changeParty",
      "outputs": [],
      "stateMutability": "nonpayable",
      "type": "function"
    },
    {
      "inputs": [
        {
          "internalType": "address",
          "name": "_party",
          "type": "address"
        },
        {
          "internalType": "address",
          "name": "_owner",
          "type": "address"
        }
      ],
      "name": "addPartyToMapping",
      "outputs": [],
      "stateMutability": "nonpayable",
      "type": "function"
    },
    {
      "inputs": [
        {
          "internalType": "address",
          "name": "_ballot",
          "type": "address"
        },
        {
          "internalType": "address",
          "name": "_owner",
          "type": "address"
        }
      ],
      "name": "addBallotToMapping",
      "outputs": [],
      "stateMutability": "nonpayable",
      "type": "function"
    },
    {
      "inputs": [
        {
          "internalType": "address",
          "name": "_user",
          "type": "address"
        }
      ],
      "name": "addPartyToUser",
      "outputs": [],
      "stateMutability": "nonpayable",
      "type": "function"
    },
    {
      "inputs": [
        {
          "internalType": "address",
          "name": "_user",
          "type": "address"
        }
      ],
      "name": "removePartyFromUser",
      "outputs": [],
      "stateMutability": "nonpayable",
      "type": "function"
    },
    {
      "inputs": [],
      "name": "getParties",
      "outputs": [
        {
          "internalType": "address[]",
          "name": "",
          "type": "address[]"
        }
      ],
      "stateMutability": "view",
      "type": "function"
    },
    {
      "inputs": [],
      "name": "getBallots",
      "outputs": [
        {
          "internalType": "address[]",
          "name": "",
          "type": "address[]"
        }
      ],
      "stateMutability": "view",
      "type": "function"
    },
    {
      "inputs": [
        {
          "internalType": "uint32",
          "name": "_dni",
          "type": "uint32"
        },
        {
          "internalType": "address",
          "name": "_address",
          "type": "address"
        }
      ],
      "name": "checkDniAddress",
      "outputs": [
        {
          "internalType": "bool",
          "name": "",
          "type": "bool"
        }
      ],
      "stateMutability": "view",
      "type": "function"
    },
    {
      "inputs": [
        {
          "internalType": "address",
          "name": "_address",
          "type": "address"
        }
      ],
      "name": "isRegistered",
      "outputs": [
        {
          "internalType": "bool",
          "name": "",
          "type": "bool"
        }
      ],
      "stateMutability": "view",
      "type": "function"
    },
    {
      "inputs": [
        {
          "internalType": "address",
          "name": "_user",
          "type": "address"
        }
      ],
      "name": "checkParty",
      "outputs": [
        {
          "internalType": "address",
          "name": "",
          "type": "address"
        }
      ],
      "stateMutability": "view",
      "type": "function"
    },
    {
      "inputs": [
        {
          "internalType": "address",
          "name": "_sender",
          "type": "address"
        }
      ],
      "name": "checkIsParty",
      "outputs": [
        {
          "internalType": "bool",
          "name": "",
          "type": "bool"
        }
      ],
      "stateMutability": "view",
      "type": "function"
    },
    {
      "inputs": [
        {
          "internalType": "address",
          "name": "_sender",
          "type": "address"
        }
      ],
      "name": "checkIsBallot",
      "outputs": [
        {
          "internalType": "bool",
          "name": "",
          "type": "bool"
        }
      ],
      "stateMutability": "view",
      "type": "function"
    },
    {
      "inputs": [],
      "name": "setLastVote",
      "outputs": [],
      "stateMutability": "nonpayable",
      "type": "function"
    },
    {
      "inputs": [
        {
          "internalType": "address",
          "name": "_user",
          "type": "address"
        }
      ],
      "name": "getLastPartyUpdate",
      "outputs": [
        {
          "internalType": "uint256",
          "name": "",
          "type": "uint256"
        }
      ],
      "stateMutability": "view",
      "type": "function"
    },
    {
      "inputs": [],
      "name": "getPartyIn",
      "outputs": [
        {
          "internalType": "address",
          "name": "",
          "type": "address"
        }
      ],
      "stateMutability": "view",
      "type": "function"
    }
  ],
  "bytecode": "0x60806040523480156200001157600080fd5b5060405162002d2938038062002d298339818101604052810190620000379190620002e4565b80600a60006101000a81548173ffffffffffffffffffffffffffffffffffffffff021916908373ffffffffffffffffffffffffffffffffffffffff160217905550600a60009054906101000a900473ffffffffffffffffffffffffffffffffffffffff1673ffffffffffffffffffffffffffffffffffffffff16632f54bf6e336040518263ffffffff1660e01b8152600401620000d591906200033c565b602060405180830381865afa158015620000f3573d6000803e3d6000fd5b505050506040513d601f19601f8201168201806040525081019062000119919062000396565b6200015b576040517f08c379a000000000000000000000000000000000000000000000000000000000815260040162000152906200044f565b60405180910390fd5b81600960006101000a81548173ffffffffffffffffffffffffffffffffffffffff021916908373ffffffffffffffffffffffffffffffffffffffff160217905550600960009054906101000a900473ffffffffffffffffffffffffffffffffffffffff1673ffffffffffffffffffffffffffffffffffffffff166369953501336040518263ffffffff1660e01b8152600401620001f991906200033c565b600060405180830381600087803b1580156200021457600080fd5b505af115801562000229573d6000803e3d6000fd5b50505050505062000471565b600080fd5b600073ffffffffffffffffffffffffffffffffffffffff82169050919050565b600062000267826200023a565b9050919050565b62000279816200025a565b81146200028557600080fd5b50565b60008151905062000299816200026e565b92915050565b6000620002ac826200023a565b9050919050565b620002be816200029f565b8114620002ca57600080fd5b50565b600081519050620002de81620002b3565b92915050565b60008060408385031215620002fe57620002fd62000235565b5b60006200030e8582860162000288565b92505060206200032185828601620002cd565b9150509250929050565b62000336816200029f565b82525050565b60006020820190506200035360008301846200032b565b92915050565b60008115159050919050565b620003708162000359565b81146200037c57600080fd5b50565b600081519050620003908162000365565b92915050565b600060208284031215620003af57620003ae62000235565b5b6000620003bf848285016200037f565b91505092915050565b600082825260208201905092915050565b7f4f6e6c7920616e206f776e65722063616e2063616c6c20746869732066756e6360008201527f74696f6e00000000000000000000000000000000000000000000000000000000602082015250565b600062000437602483620003c8565b91506200044482620003d9565b604082019050919050565b600060208201905081810360008301526200046a8162000428565b9050919050565b6128a880620004816000396000f3fe608060405234801561001057600080fd5b50600436106101005760003560e01c8063c8639c6b11610097578063ebd9955011610066578063ebd99550146102ad578063f6cfac22146102c9578063f8b2e512146102e5578063fcb0ed0d1461031557610100565b8063c8639c6b146101ff578063ccaef2bb1461022f578063e132b73a1461025f578063eb87c6dc1461028f57610100565b80636bf14699116100d35780636bf1469914610179578063a8311aa814610195578063c1030352146101b3578063c3c5a547146101cf57610100565b80631bff4a9414610105578063454b15bf1461010f578063586ad9fe1461012d5780635c253c8f1461015d575b600080fd5b61010d610331565b005b610117610403565b6040516101249190611b1f565b60405180910390f35b61014760048036038101906101429190611b6b565b61046a565b6040516101549190611bb1565b60405180910390f35b61017760048036038101906101729190611b6b565b61053f565b005b610193600480360381019061018e9190611cb5565b610911565b005b61019d610ecb565b6040516101aa9190611dee565b60405180910390f35b6101cd60048036038101906101c89190611b6b565b610f96565b005b6101e960048036038101906101e49190611b6b565b6113de565b6040516101f69190611e2b565b60405180910390f35b61021960048036038101906102149190611e46565b61143f565b6040516102269190611e2b565b60405180910390f35b61024960048036038101906102449190611b6b565b6114b7565b6040516102569190611e2b565b60405180910390f35b61027960048036038101906102749190611b6b565b61150d565b6040516102869190611b1f565b60405180910390f35b6102976115be565b6040516102a49190611dee565b60405180910390f35b6102c760048036038101906102c29190611e86565b61164c565b005b6102e360048036038101906102de9190611b6b565b61177d565b005b6102ff60048036038101906102fa9190611b6b565b6118f4565b60405161030c9190611e2b565b60405180910390f35b61032f600480360381019061032a9190611e86565b61194a565b005b600660003373ffffffffffffffffffffffffffffffffffffffff1673ffffffffffffffffffffffffffffffffffffffff16815260200190815260200160002060009054906101000a900460ff166103bd576040517f08c379a00000000000000000000000000000000000000000000000000000000081526004016103b490611f23565b60405180910390fd5b42600560003373ffffffffffffffffffffffffffffffffffffffff1673ffffffffffffffffffffffffffffffffffffffff16815260200190815260200160002081905550565b6000600260003373ffffffffffffffffffffffffffffffffffffffff1673ffffffffffffffffffffffffffffffffffffffff16815260200190815260200160002060009054906101000a900473ffffffffffffffffffffffffffffffffffffffff16905090565b6000600760003373ffffffffffffffffffffffffffffffffffffffff1673ffffffffffffffffffffffffffffffffffffffff16815260200190815260200160002060009054906101000a900460ff166104f8576040517f08c379a00000000000000000000000000000000000000000000000000000000081526004016104ef90611f8f565b60405180910390fd5b600460008373ffffffffffffffffffffffffffffffffffffffff1673ffffffffffffffffffffffffffffffffffffffff168152602001908152602001600020549050919050565b600660003373ffffffffffffffffffffffffffffffffffffffff1673ffffffffffffffffffffffffffffffffffffffff16815260200190815260200160002060009054906101000a900460ff166105cb576040517f08c379a00000000000000000000000000000000000000000000000000000000081526004016105c290611ffb565b60405180910390fd5b6105d4816113de565b610613576040517f08c379a000000000000000000000000000000000000000000000000000000000815260040161060a90612067565b60405180910390fd5b60005b600360008373ffffffffffffffffffffffffffffffffffffffff1673ffffffffffffffffffffffffffffffffffffffff1681526020019081526020016000208054905081101561090d573373ffffffffffffffffffffffffffffffffffffffff16600360008473ffffffffffffffffffffffffffffffffffffffff1673ffffffffffffffffffffffffffffffffffffffff16815260200190815260200160002082815481106106c8576106c7612087565b5b9060005260206000200160009054906101000a900473ffffffffffffffffffffffffffffffffffffffff1673ffffffffffffffffffffffffffffffffffffffff16036108fa57600360008373ffffffffffffffffffffffffffffffffffffffff1673ffffffffffffffffffffffffffffffffffffffff1681526020019081526020016000206001600360008573ffffffffffffffffffffffffffffffffffffffff1673ffffffffffffffffffffffffffffffffffffffff1681526020019081526020016000208054905061079c91906120e5565b815481106107ad576107ac612087565b5b9060005260206000200160009054906101000a900473ffffffffffffffffffffffffffffffffffffffff16600360008473ffffffffffffffffffffffffffffffffffffffff1673ffffffffffffffffffffffffffffffffffffffff168152602001908152602001600020828154811061082957610828612087565b5b9060005260206000200160006101000a81548173ffffffffffffffffffffffffffffffffffffffff021916908373ffffffffffffffffffffffffffffffffffffffff160217905550600360008373ffffffffffffffffffffffffffffffffffffffff1673ffffffffffffffffffffffffffffffffffffffff1681526020019081526020016000208054806108c0576108bf612119565b5b6001900381819060005260206000200160006101000a81549073ffffffffffffffffffffffffffffffffffffffff0219169055905561090d565b808061090590612148565b915050610616565b5050565b600a60009054906101000a900473ffffffffffffffffffffffffffffffffffffffff1673ffffffffffffffffffffffffffffffffffffffff16632f54bf6e336040518263ffffffff1660e01b815260040161096c9190611b1f565b602060405180830381865afa158015610989573d6000803e3d6000fd5b505050506040513d601f19601f820116820180604052508101906109ad91906121bc565b6109b657600080fd5b60008060008473ffffffffffffffffffffffffffffffffffffffff1673ffffffffffffffffffffffffffffffffffffffff16815260200190815260200160002060009054906101000a900463ffffffff1663ffffffff1614610a4d576040517f08c379a0000000000000000000000000000000000000000000000000000000008152600401610a4490612235565b60405180910390fd5b600073ffffffffffffffffffffffffffffffffffffffff16600160008363ffffffff1663ffffffff16815260200190815260200160002060009054906101000a900473ffffffffffffffffffffffffffffffffffffffff1673ffffffffffffffffffffffffffffffffffffffff1614610afb576040517f08c379a0000000000000000000000000000000000000000000000000000000008152600401610af2906122a1565b60405180910390fd5b600046905060007f8b73c3c69bb8fe3d512ecc4cf759cc79239f7b179b0ffacaa9a75d522b39400f6040518060400160405280600781526020017f6e65775573657200000000000000000000000000000000000000000000000000815250805190602001206040518060400160405280600181526020017f3100000000000000000000000000000000000000000000000000000000000000815250805190602001208430604051602001610bb39594939291906122d0565b60405160208183030381529060405280519060200120905060007f8f25d81790b4afefdf0dc1a25c9048944e3ce0bdf488d49677162dcf40637b8d8585604051602001610c0293929190612341565b60405160208183030381529060405280519060200120905060008282604051602001610c2f9291906123f0565b60405160208183030381529060405280519060200120905060006001828b8b8b60405160008152602001604052604051610c6c9493929190612436565b6020604051602081039080840390855afa158015610c8e573d6000803e3d6000fd5b505050602060405103519050600073ffffffffffffffffffffffffffffffffffffffff168173ffffffffffffffffffffffffffffffffffffffff1603610d09576040517f08c379a0000000000000000000000000000000000000000000000000000000008152600401610d00906124c7565b60405180910390fd5b8673ffffffffffffffffffffffffffffffffffffffff168173ffffffffffffffffffffffffffffffffffffffff1614610d77576040517f08c379a0000000000000000000000000000000000000000000000000000000008152600401610d6e90612533565b60405180910390fd5b856000808973ffffffffffffffffffffffffffffffffffffffff1673ffffffffffffffffffffffffffffffffffffffff16815260200190815260200160002060006101000a81548163ffffffff021916908363ffffffff16021790555086600160008863ffffffff1663ffffffff16815260200190815260200160002060006101000a81548173ffffffffffffffffffffffffffffffffffffffff021916908373ffffffffffffffffffffffffffffffffffffffff160217905550600960009054906101000a900473ffffffffffffffffffffffffffffffffffffffff1673ffffffffffffffffffffffffffffffffffffffff16635d365ce0886040518263ffffffff1660e01b8152600401610e8d9190612553565b600060405180830381600087803b158015610ea757600080fd5b505af1158015610ebb573d6000803e3d6000fd5b5050505050505050505050505050565b6060600360003373ffffffffffffffffffffffffffffffffffffffff1673ffffffffffffffffffffffffffffffffffffffff168152602001908152602001600020805480602002602001604051908101604052809291908181526020018280548015610f8c57602002820191906000526020600020905b8160009054906101000a900473ffffffffffffffffffffffffffffffffffffffff1673ffffffffffffffffffffffffffffffffffffffff1681526020019060010190808311610f42575b5050505050905090565b8073ffffffffffffffffffffffffffffffffffffffff16600260003373ffffffffffffffffffffffffffffffffffffffff1673ffffffffffffffffffffffffffffffffffffffff16815260200190815260200160002060009054906101000a900473ffffffffffffffffffffffffffffffffffffffff1673ffffffffffffffffffffffffffffffffffffffff1603611063576040517f08c379a000000000000000000000000000000000000000000000000000000000815260040161105a906125ba565b60405180910390fd5b6000600260003373ffffffffffffffffffffffffffffffffffffffff1673ffffffffffffffffffffffffffffffffffffffff16815260200190815260200160002060009054906101000a900473ffffffffffffffffffffffffffffffffffffffff169050600073ffffffffffffffffffffffffffffffffffffffff168173ffffffffffffffffffffffffffffffffffffffff16146111f1574262015180600560008473ffffffffffffffffffffffffffffffffffffffff1673ffffffffffffffffffffffffffffffffffffffff1681526020019081526020016000205461114a91906125da565b1061118a576040517f08c379a0000000000000000000000000000000000000000000000000000000008152600401611181906126a2565b60405180910390fd5b60008190508073ffffffffffffffffffffffffffffffffffffffff16635b1384976040518163ffffffff1660e01b8152600401600060405180830381600087803b1580156111d757600080fd5b505af11580156111eb573d6000803e3d6000fd5b50505050505b600073ffffffffffffffffffffffffffffffffffffffff168273ffffffffffffffffffffffffffffffffffffffff161461131857600660008373ffffffffffffffffffffffffffffffffffffffff1673ffffffffffffffffffffffffffffffffffffffff16815260200190815260200160002060009054906101000a900460ff166112b1576040517f08c379a00000000000000000000000000000000000000000000000000000000081526004016112a890611ffb565b60405180910390fd5b60008290508073ffffffffffffffffffffffffffffffffffffffff1663f7b85eb36040518163ffffffff1660e01b8152600401600060405180830381600087803b1580156112fe57600080fd5b505af1158015611312573d6000803e3d6000fd5b50505050505b81600260003373ffffffffffffffffffffffffffffffffffffffff1673ffffffffffffffffffffffffffffffffffffffff16815260200190815260200160002060006101000a81548173ffffffffffffffffffffffffffffffffffffffff021916908373ffffffffffffffffffffffffffffffffffffffff16021790555042600460003373ffffffffffffffffffffffffffffffffffffffff1673ffffffffffffffffffffffffffffffffffffffff168152602001908152602001600020819055505050565b6000806000808473ffffffffffffffffffffffffffffffffffffffff1673ffffffffffffffffffffffffffffffffffffffff16815260200190815260200160002060009054906101000a900463ffffffff1663ffffffff1614159050919050565b60008173ffffffffffffffffffffffffffffffffffffffff16600160008563ffffffff1663ffffffff16815260200190815260200160002060009054906101000a900473ffffffffffffffffffffffffffffffffffffffff1673ffffffffffffffffffffffffffffffffffffffff1614905092915050565b6000600760008373ffffffffffffffffffffffffffffffffffffffff1673ffffffffffffffffffffffffffffffffffffffff16815260200190815260200160002060009054906101000a900460ff169050919050565b6000611518336114b7565b611557576040517f08c379a000000000000000000000000000000000000000000000000000000000815260040161154e9061270e565b60405180910390fd5b600260008373ffffffffffffffffffffffffffffffffffffffff1673ffffffffffffffffffffffffffffffffffffffff16815260200190815260200160002060009054906101000a900473ffffffffffffffffffffffffffffffffffffffff169050919050565b6060600880548060200260200160405190810160405280929190818152602001828054801561164257602002820191906000526020600020905b8160009054906101000a900473ffffffffffffffffffffffffffffffffffffffff1673ffffffffffffffffffffffffffffffffffffffff16815260200190600101908083116115f8575b5050505050905090565b600660008373ffffffffffffffffffffffffffffffffffffffff1673ffffffffffffffffffffffffffffffffffffffff16815260200190815260200160002060009054906101000a900460ff16156116d9576040517f08c379a00000000000000000000000000000000000000000000000000000000081526004016116d09061277a565b60405180910390fd5b6116e2816113de565b611721576040517f08c379a0000000000000000000000000000000000000000000000000000000008152600401611718906127e6565b60405180910390fd5b6001600660008473ffffffffffffffffffffffffffffffffffffffff1673ffffffffffffffffffffffffffffffffffffffff16815260200190815260200160002060006101000a81548160ff0219169083151502179055505050565b600660003373ffffffffffffffffffffffffffffffffffffffff1673ffffffffffffffffffffffffffffffffffffffff16815260200190815260200160002060009054906101000a900460ff16611809576040517f08c379a000000000000000000000000000000000000000000000000000000000815260040161180090611ffb565b60405180910390fd5b611812816113de565b611851576040517f08c379a000000000000000000000000000000000000000000000000000000000815260040161184890612067565b60405180910390fd5b600360008273ffffffffffffffffffffffffffffffffffffffff1673ffffffffffffffffffffffffffffffffffffffff168152602001908152602001600020339080600181540180825580915050600190039060005260206000200160009091909190916101000a81548173ffffffffffffffffffffffffffffffffffffffff021916908373ffffffffffffffffffffffffffffffffffffffff16021790555050565b6000600660008373ffffffffffffffffffffffffffffffffffffffff1673ffffffffffffffffffffffffffffffffffffffff16815260200190815260200160002060009054906101000a900460ff169050919050565b600760008373ffffffffffffffffffffffffffffffffffffffff1673ffffffffffffffffffffffffffffffffffffffff16815260200190815260200160002060009054906101000a900460ff16156119d7576040517f08c379a00000000000000000000000000000000000000000000000000000000081526004016119ce90612852565b60405180910390fd5b6119e0816113de565b611a1f576040517f08c379a0000000000000000000000000000000000000000000000000000000008152600401611a16906127e6565b60405180910390fd5b6001600760008473ffffffffffffffffffffffffffffffffffffffff1673ffffffffffffffffffffffffffffffffffffffff16815260200190815260200160002060006101000a81548160ff0219169083151502179055506008829080600181540180825580915050600190039060005260206000200160009091909190916101000a81548173ffffffffffffffffffffffffffffffffffffffff021916908373ffffffffffffffffffffffffffffffffffffffff1602179055505050565b600073ffffffffffffffffffffffffffffffffffffffff82169050919050565b6000611b0982611ade565b9050919050565b611b1981611afe565b82525050565b6000602082019050611b346000830184611b10565b92915050565b600080fd5b611b4881611afe565b8114611b5357600080fd5b50565b600081359050611b6581611b3f565b92915050565b600060208284031215611b8157611b80611b3a565b5b6000611b8f84828501611b56565b91505092915050565b6000819050919050565b611bab81611b98565b82525050565b6000602082019050611bc66000830184611ba2565b92915050565b600060ff82169050919050565b611be281611bcc565b8114611bed57600080fd5b50565b600081359050611bff81611bd9565b92915050565b6000819050919050565b611c1881611c05565b8114611c2357600080fd5b50565b600081359050611c3581611c0f565b92915050565b6000611c4682611ade565b9050919050565b611c5681611c3b565b8114611c6157600080fd5b50565b600081359050611c7381611c4d565b92915050565b600063ffffffff82169050919050565b611c9281611c79565b8114611c9d57600080fd5b50565b600081359050611caf81611c89565b92915050565b600080600080600060a08688031215611cd157611cd0611b3a565b5b6000611cdf88828901611bf0565b9550506020611cf088828901611c26565b9450506040611d0188828901611c26565b9350506060611d1288828901611c64565b9250506080611d2388828901611ca0565b9150509295509295909350565b600081519050919050565b600082825260208201905092915050565b6000819050602082019050919050565b611d6581611afe565b82525050565b6000611d778383611d5c565b60208301905092915050565b6000602082019050919050565b6000611d9b82611d30565b611da58185611d3b565b9350611db083611d4c565b8060005b83811015611de1578151611dc88882611d6b565b9750611dd383611d83565b925050600181019050611db4565b5085935050505092915050565b60006020820190508181036000830152611e088184611d90565b905092915050565b60008115159050919050565b611e2581611e10565b82525050565b6000602082019050611e406000830184611e1c565b92915050565b60008060408385031215611e5d57611e5c611b3a565b5b6000611e6b85828601611ca0565b9250506020611e7c85828601611b56565b9150509250929050565b60008060408385031215611e9d57611e9c611b3a565b5b6000611eab85828601611b56565b9250506020611ebc85828601611b56565b9150509250929050565b600082825260208201905092915050565b7f4e6f742061207061727479000000000000000000000000000000000000000000600082015250565b6000611f0d600b83611ec6565b9150611f1882611ed7565b602082019050919050565b60006020820190508181036000830152611f3c81611f00565b9050919050565b7f4e6f7420612062616c6c6f740000000000000000000000000000000000000000600082015250565b6000611f79600c83611ec6565b9150611f8482611f43565b602082019050919050565b60006020820190508181036000830152611fa881611f6c565b9050919050565b7f496e76616c696420706172747900000000000000000000000000000000000000600082015250565b6000611fe5600d83611ec6565b9150611ff082611faf565b602082019050919050565b6000602082019050818103600083015261201481611fd8565b9050919050565b7f55736572206e6f74207265676973746572656400000000000000000000000000600082015250565b6000612051601383611ec6565b915061205c8261201b565b602082019050919050565b6000602082019050818103600083015261208081612044565b9050919050565b7f4e487b7100000000000000000000000000000000000000000000000000000000600052603260045260246000fd5b7f4e487b7100000000000000000000000000000000000000000000000000000000600052601160045260246000fd5b60006120f082611b98565b91506120fb83611b98565b92508282101561210e5761210d6120b6565b5b828203905092915050565b7f4e487b7100000000000000000000000000000000000000000000000000000000600052603160045260246000fd5b600061215382611b98565b91507fffffffffffffffffffffffffffffffffffffffffffffffffffffffffffffffff8203612185576121846120b6565b5b600182019050919050565b61219981611e10565b81146121a457600080fd5b50565b6000815190506121b681612190565b92915050565b6000602082840312156121d2576121d1611b3a565b5b60006121e0848285016121a7565b91505092915050565b7f596f752061726520616c72656164792072656769737465726564000000000000600082015250565b600061221f601a83611ec6565b915061222a826121e9565b602082019050919050565b6000602082019050818103600083015261224e81612212565b9050919050565b7f444e4920616c7265616479207265676973746572656400000000000000000000600082015250565b600061228b601683611ec6565b915061229682612255565b602082019050919050565b600060208201905081810360008301526122ba8161227e565b9050919050565b6122ca81611c05565b82525050565b600060a0820190506122e560008301886122c1565b6122f260208301876122c1565b6122ff60408301866122c1565b61230c6060830185611ba2565b6123196080830184611b10565b9695505050505050565b61232c81611c3b565b82525050565b61233b81611c79565b82525050565b600060608201905061235660008301866122c1565b6123636020830185612323565b6123706040830184612332565b949350505050565b600081905092915050565b7f1901000000000000000000000000000000000000000000000000000000000000600082015250565b60006123b9600283612378565b91506123c482612383565b600282019050919050565b6000819050919050565b6123ea6123e582611c05565b6123cf565b82525050565b60006123fb826123ac565b915061240782856123d9565b60208201915061241782846123d9565b6020820191508190509392505050565b61243081611bcc565b82525050565b600060808201905061244b60008301876122c1565b6124586020830186612427565b61246560408301856122c1565b61247260608301846122c1565b95945050505050565b7f45434453413a20696e76616c6964207369676e61747572650000000000000000600082015250565b60006124b1601883611ec6565b91506124bc8261247b565b602082019050919050565b600060208201905081810360008301526124e0816124a4565b9050919050565b7f52656769737465723a20696e76616c6964207369676e61747572650000000000600082015250565b600061251d601b83611ec6565b9150612528826124e7565b602082019050919050565b6000602082019050818103600083015261254c81612510565b9050919050565b60006020820190506125686000830184612323565b92915050565b7f596f752061726520616c726561647920696e2074686973207061727479000000600082015250565b60006125a4601d83611ec6565b91506125af8261256e565b602082019050919050565b600060208201905081810360008301526125d381612597565b9050919050565b60006125e582611b98565b91506125f083611b98565b9250827fffffffffffffffffffffffffffffffffffffffffffffffffffffffffffffffff03821115612625576126246120b6565b5b828201905092915050565b7f596f752063616e2774206c6561766520612070617274792c207468652070617260008201527f747920686173206a75737420766f746564000000000000000000000000000000602082015250565b600061268c603183611ec6565b915061269782612630565b604082019050919050565b600060208201905081810360008301526126bb8161267f565b9050919050565b7f596f7520617265206e6f7420612062616c6c6f74000000000000000000000000600082015250565b60006126f8601483611ec6565b9150612703826126c2565b602082019050919050565b60006020820190508181036000830152612727816126eb565b9050919050565b7f506172747920616c726561647920696e206d617070696e670000000000000000600082015250565b6000612764601883611ec6565b915061276f8261272e565b602082019050919050565b6000602082019050818103600083015261279381612757565b9050919050565b7f4f776e6572206e6f742072656769737465726564000000000000000000000000600082015250565b60006127d0601483611ec6565b91506127db8261279a565b602082019050919050565b600060208201905081810360008301526127ff816127c3565b9050919050565b7f42616c6c6f7420616c726561647920696e206d617070696e6700000000000000600082015250565b600061283c601983611ec6565b915061284782612806565b602082019050919050565b6000602082019050818103600083015261286b8161282f565b905091905056fea264697066735822122089898404ceb2dee992179e83ccbf59262175cd89a27992741144dbd7c2ad949764736f6c634300080e0033",
  "immutableReferences": {},
  "source": "// SPDX-License-Identifier: UNLICENSED\r\npragma solidity >=0.8.14;\r\n\r\nimport \"./Owned.sol\";\r\nimport \"./VoteFaucet.sol\";\r\nimport \"./Party.sol\";\r\nimport \"./Operators.sol\";\r\nimport \"./Ballot.sol\";\r\n\r\ncontract Utils {\r\n    //Turns address to dni and viceversa\r\n    mapping(address => uint32) private addressToDni;\r\n    mapping(uint32 => address) private dniToAddress;\r\n\r\n    //Mapping that stores the party of each person\r\n    mapping(address => address) private inParty;\r\n    mapping(address => address[]) private userParties;\r\n\r\n    //Mapping that stores when a person joined or left a party\r\n    mapping(address => uint256) private userPartyUpdate;\r\n    mapping(address => uint256) private partyLastVote;\r\n\r\n    mapping(address => bool) private isParty;\r\n    mapping(address => bool) private isBallot;\r\n\r\n    address[] private ballots;\r\n\r\n    VoteFaucet voteFaucet;\r\n    Operators operators;\r\n\r\n    //----------------------CONSTRUCTOR-----------------------\r\n\r\n    constructor(address payable _voteFaucet, address _operators) {\r\n        operators = Operators(_operators);\r\n        require(\r\n            operators.isOwner(msg.sender),\r\n            \"Only an owner can call this function\"\r\n        );\r\n        voteFaucet = VoteFaucet(_voteFaucet);\r\n        voteFaucet.setUtils(msg.sender);\r\n    }\r\n\r\n    //-----------------------FUNCTIONS------------------------\r\n\r\n    function secureRegister(\r\n        uint8 v,\r\n        bytes32 r,\r\n        bytes32 s,\r\n        address payable sender,\r\n        uint32 dni\r\n    ) public {\r\n        require(operators.isOwner(msg.sender));\r\n        require(addressToDni[sender] == 0, \"You are already registered\");\r\n        require(dniToAddress[dni] == address(0), \"DNI already registered\");\r\n\r\n        uint256 chainId;\r\n        assembly {\r\n            chainId := chainid()\r\n        }\r\n\r\n        bytes32 eip712DomainHash = keccak256(\r\n            abi.encode(\r\n                keccak256(\r\n                    \"EIP712Domain(string name,string version,uint256 chainId,address verifyingContract)\"\r\n                ),\r\n                keccak256(bytes(\"newUser\")),\r\n                keccak256(bytes(\"1\")),\r\n                chainId,\r\n                address(this)\r\n            )\r\n        );\r\n\r\n        bytes32 hashStruct = keccak256(\r\n            abi.encode(\r\n                keccak256(\"secureRegister(address sender,uint dni)\"),\r\n                sender,\r\n                dni\r\n            )\r\n        );\r\n\r\n        bytes32 hash = keccak256(\r\n            abi.encodePacked(\"\\x19\\x01\", eip712DomainHash, hashStruct)\r\n        );\r\n\r\n        address signer = ecrecover(hash, v, r, s);\r\n        require(signer != address(0), \"ECDSA: invalid signature\");\r\n        require(signer == sender, \"Register: invalid signature\");\r\n\r\n        addressToDni[sender] = dni;\r\n        dniToAddress[dni] = sender;\r\n\r\n        voteFaucet.registerPay(sender);\r\n    }\r\n\r\n    function changeParty(address _newParty) public {\r\n        require(\r\n            inParty[msg.sender] != _newParty,\r\n            \"You are already in this party\"\r\n        );\r\n\r\n        address oldPartyAddress = inParty[msg.sender];\r\n\r\n        if (oldPartyAddress != address(0)) {\r\n            require(\r\n                partyLastVote[oldPartyAddress] + 1 days < block.timestamp,\r\n                \"You can't leave a party, the party has just voted\"\r\n            );\r\n            Party oldParty = Party(oldPartyAddress);\r\n            oldParty.decreaseMembers();\r\n        }\r\n\r\n        if (_newParty != address(0)) {\r\n            require(isParty[_newParty], \"Invalid party\");\r\n            Party newParty = Party(_newParty);\r\n            newParty.increaseMembers();\r\n        }\r\n\r\n        inParty[msg.sender] = _newParty;\r\n        userPartyUpdate[msg.sender] = block.timestamp;\r\n    }\r\n\r\n    function addPartyToMapping(address _party, address _owner) public {\r\n        require(!isParty[_party], \"Party already in mapping\");\r\n        require(isRegistered(_owner), \"Owner not registered\");\r\n        isParty[_party] = true;\r\n    }\r\n\r\n    function addBallotToMapping(address _ballot, address _owner) public {\r\n        require(!isBallot[_ballot], \"Ballot already in mapping\");\r\n        require(isRegistered(_owner), \"Owner not registered\");\r\n        isBallot[_ballot] = true;\r\n        ballots.push(_ballot);\r\n    }\r\n\r\n    function addPartyToUser(address _user) public {\r\n        require(isParty[msg.sender], \"Invalid party\");\r\n        require(isRegistered(_user), \"User not registered\");\r\n        userParties[_user].push(msg.sender);\r\n    }\r\n\r\n    function removePartyFromUser(address _user) public {\r\n        require(isParty[msg.sender], \"Invalid party\");\r\n        require(isRegistered(_user), \"User not registered\");\r\n        for (uint256 i = 0; i < userParties[_user].length; i++) {\r\n            if (userParties[_user][i] == msg.sender) {\r\n                userParties[_user][i] = userParties[_user][\r\n                    userParties[_user].length - 1\r\n                ];\r\n                userParties[_user].pop();\r\n                break;\r\n            }\r\n        }\r\n    }\r\n\r\n    function getParties() public view returns (address[] memory) {\r\n        return userParties[msg.sender];\r\n    }\r\n\r\n    function getBallots() public view returns (address[] memory) {\r\n        return ballots;\r\n    }\r\n\r\n    //Check if dni and address correspond to each other\r\n    function checkDniAddress(uint32 _dni, address _address)\r\n        public\r\n        view\r\n        returns (bool)\r\n    {\r\n        return dniToAddress[_dni] == _address;\r\n    }\r\n\r\n    //Check if person is registered\r\n    function isRegistered(address _address) public view returns (bool) {\r\n        return addressToDni[_address] != 0;\r\n    }\r\n\r\n    //Check users party\r\n    function checkParty(address _user) public view returns (address) {\r\n        require(checkIsBallot(msg.sender), \"You are not a ballot\");\r\n        return inParty[_user];\r\n    }\r\n\r\n    function checkIsParty(address _sender) public view returns (bool) {\r\n        return isParty[_sender];\r\n    }\r\n\r\n    function checkIsBallot(address _sender) public view returns (bool) {\r\n        return isBallot[_sender];\r\n    }\r\n\r\n    function setLastVote() public {\r\n        require(isParty[msg.sender], \"Not a party\");\r\n        partyLastVote[msg.sender] = block.timestamp;\r\n    }\r\n\r\n    function getLastPartyUpdate(address _user) public view returns (uint256) {\r\n        require(isBallot[msg.sender], \"Not a ballot\");\r\n        return userPartyUpdate[_user];\r\n    }\r\n\r\n    function getPartyIn() public view returns (address) {\r\n        return inParty[msg.sender];\r\n    }\r\n}\r\n",
  "sourcePath": "C:\\Users\\eduge\\TFG\\Voting-TFG\\contracts\\Utils.sol",
  "compiler": {
    "name": "solc",
    "version": "0.8.14+commit.80d49f37.Emscripten.clang"
  },
  "schemaVersion": "3.4.9",
  "updatedAt": "2022-09-20T06:43:15.068Z",
  "devdoc": {
    "kind": "dev",
    "methods": {},
    "version": 1
  },
  "userdoc": {
    "kind": "user",
    "methods": {},
    "version": 1
  },
  "address": "0xa29C9546eFE495Dafe2eeAb9351a510B9243C6e2"
}